{
  "_format": "hh-sol-artifact-1",
  "contractName": "AaveLiquidator",
  "sourceName": "contracts/AaveLiquidator.sol",
  "abi": [
    {
      "inputs": [
        {
          "internalType": "contract ILendingPoolAddressesProvider",
          "name": "_addressProvider",
          "type": "address"
        }
      ],
      "stateMutability": "nonpayable",
      "type": "constructor"
    },
    {
      "anonymous": false,
      "inputs": [
        {
          "indexed": true,
          "internalType": "address",
          "name": "previousOwner",
          "type": "address"
        },
        {
          "indexed": true,
          "internalType": "address",
          "name": "newOwner",
          "type": "address"
        }
      ],
      "name": "OwnershipTransferred",
      "type": "event"
    },
    {
      "inputs": [],
      "name": "ADDRESSES_PROVIDER",
      "outputs": [
        {
          "internalType": "contract ILendingPoolAddressesProvider",
          "name": "",
          "type": "address"
        }
      ],
      "stateMutability": "view",
      "type": "function"
    },
    {
      "inputs": [],
      "name": "LENDING_POOL",
      "outputs": [
        {
          "internalType": "contract ILendingPool",
          "name": "",
          "type": "address"
        }
      ],
      "stateMutability": "view",
      "type": "function"
    },
    {
      "inputs": [
        {
          "internalType": "address[]",
          "name": "assets",
          "type": "address[]"
        },
        {
          "internalType": "uint256[]",
          "name": "amounts",
          "type": "uint256[]"
        },
        {
          "internalType": "uint256[]",
          "name": "premiums",
          "type": "uint256[]"
        },
        {
          "internalType": "address",
          "name": "initiator",
          "type": "address"
        },
        {
          "internalType": "bytes",
          "name": "params",
          "type": "bytes"
        }
      ],
      "name": "executeOperation",
      "outputs": [
        {
          "internalType": "bool",
          "name": "",
          "type": "bool"
        }
      ],
      "stateMutability": "nonpayable",
      "type": "function"
    },
    {
      "inputs": [
        {
          "internalType": "address",
          "name": "_debt",
          "type": "address"
        },
        {
          "internalType": "address",
          "name": "_collateral",
          "type": "address"
        },
        {
          "internalType": "address",
          "name": "_user",
          "type": "address"
        },
        {
          "internalType": "uint256",
          "name": "_debtToPay",
          "type": "uint256"
        }
      ],
      "name": "liquidate",
      "outputs": [],
      "stateMutability": "nonpayable",
      "type": "function"
    },
    {
      "inputs": [],
      "name": "owner",
      "outputs": [
        {
          "internalType": "address",
          "name": "",
          "type": "address"
        }
      ],
      "stateMutability": "view",
      "type": "function"
    },
    {
      "inputs": [],
      "name": "renounceOwnership",
      "outputs": [],
      "stateMutability": "nonpayable",
      "type": "function"
    },
    {
      "inputs": [
        {
          "internalType": "address",
          "name": "newOwner",
          "type": "address"
        }
      ],
      "name": "transferOwnership",
      "outputs": [],
      "stateMutability": "nonpayable",
      "type": "function"
    },
    {
      "inputs": [
        {
          "internalType": "address",
          "name": "_user",
          "type": "address"
        }
      ],
      "name": "unhealthyUser",
      "outputs": [
        {
          "internalType": "bool",
          "name": "",
          "type": "bool"
        }
      ],
      "stateMutability": "view",
      "type": "function"
    },
    {
      "inputs": [],
      "name": "uniswapFactoryAddress",
      "outputs": [
        {
          "internalType": "address",
          "name": "",
          "type": "address"
        }
      ],
      "stateMutability": "view",
      "type": "function"
    },
    {
      "inputs": [],
      "name": "uniswapRouter02Address",
      "outputs": [
        {
          "internalType": "address",
          "name": "",
          "type": "address"
        }
      ],
      "stateMutability": "view",
      "type": "function"
    },
    {
      "inputs": [],
      "name": "weth",
      "outputs": [
        {
          "internalType": "address",
          "name": "",
          "type": "address"
        }
      ],
      "stateMutability": "view",
      "type": "function"
    },
    {
      "inputs": [
        {
          "internalType": "address[]",
          "name": "tokens",
          "type": "address[]"
        }
      ],
      "name": "withdrawTokens",
      "outputs": [],
      "stateMutability": "nonpayable",
      "type": "function"
    }
  ],
  "bytecode": "0x60c060405273a5e0829caced8ffdd4de3c43696c57f7d7a678ff600160006101000a81548173ffffffffffffffffffffffffffffffffffffffff021916908373ffffffffffffffffffffffffffffffffffffffff160217905550735757371414417b8c6caad45baef941abc7d3ab32600260006101000a81548173ffffffffffffffffffffffffffffffffffffffff021916908373ffffffffffffffffffffffffffffffffffffffff160217905550737ceb23fd6bc0add59e62ac25578270cff1b9f619600360006101000a81548173ffffffffffffffffffffffffffffffffffffffff021916908373ffffffffffffffffffffffffffffffffffffffff1602179055503480156200011057600080fd5b50604051620039bc380380620039bc833981810160405281019062000136919062000372565b620001566200014a6200024c60201b60201c565b6200025460201b60201c565b8073ffffffffffffffffffffffffffffffffffffffff1660808173ffffffffffffffffffffffffffffffffffffffff1660601b815250508073ffffffffffffffffffffffffffffffffffffffff16630261bf8b6040518163ffffffff1660e01b815260040160206040518083038186803b158015620001d457600080fd5b505afa158015620001e9573d6000803e3d6000fd5b505050506040513d601f19601f820116820180604052508101906200020f919062000346565b73ffffffffffffffffffffffffffffffffffffffff1660a08173ffffffffffffffffffffffffffffffffffffffff1660601b81525050506200041a565b600033905090565b60008060009054906101000a900473ffffffffffffffffffffffffffffffffffffffff169050816000806101000a81548173ffffffffffffffffffffffffffffffffffffffff021916908373ffffffffffffffffffffffffffffffffffffffff1602179055508173ffffffffffffffffffffffffffffffffffffffff168173ffffffffffffffffffffffffffffffffffffffff167f8be0079c531659141344cd1fd0a4f28419497f9722a3daafe3b4186f6b6457e060405160405180910390a35050565b6000815190506200032981620003e6565b92915050565b600081519050620003408162000400565b92915050565b6000602082840312156200035957600080fd5b6000620003698482850162000318565b91505092915050565b6000602082840312156200038557600080fd5b600062000395848285016200032f565b91505092915050565b6000620003ab82620003c6565b9050919050565b6000620003bf826200039e565b9050919050565b600073ffffffffffffffffffffffffffffffffffffffff82169050919050565b620003f1816200039e565b8114620003fd57600080fd5b50565b6200040b81620003b2565b81146200041757600080fd5b50565b60805160601c60a05160601c613553620004696000396000818161025c0152818161099701528181610d88015281816110ac0152818161141201526114380152600061022d01526135536000f3fe608060405234801561001057600080fd5b50600436106100b45760003560e01c80638da5cb5b116100715780638da5cb5b14610169578063920f5c8414610187578063aab3f868146101b7578063b4625e2f146101d3578063b4dcfc77146101f1578063f2fde38b1461020f576100b4565b80630542975c146100b95780631d340cb5146100d75780633655ac3c146101075780633fc8cef3146101255780635ecb16cd14610143578063715018a61461015f575b600080fd5b6100c161022b565b6040516100ce9190612c5c565b60405180910390f35b6100f160048036038101906100ec9190612371565b61024f565b6040516100fe9190612c41565b60405180910390f35b61010f610327565b60405161011c9190612af6565b60405180910390f35b61012d61034d565b60405161013a9190612af6565b60405180910390f35b61015d60048036038101906101589190612426565b610373565b005b61016761061e565b005b6101716106a6565b60405161017e9190612af6565b60405180910390f35b6101a1600480360381019061019c919061246b565b6106cf565b6040516101ae9190612c41565b60405180910390f35b6101d160048036038101906101cc91906123c3565b6109d0565b005b6101db611084565b6040516101e89190612af6565b60405180910390f35b6101f96110aa565b6040516102069190612c77565b60405180910390f35b61022960048036038101906102249190612371565b6110ce565b005b7f000000000000000000000000000000000000000000000000000000000000000081565b60008060008060008060007f000000000000000000000000000000000000000000000000000000000000000073ffffffffffffffffffffffffffffffffffffffff1663bf92857c896040518263ffffffff1660e01b81526004016102b39190612af6565b60c06040518083038186803b1580156102cb57600080fd5b505afa1580156102df573d6000803e3d6000fd5b505050506040513d601f19601f82011682018060405250810190610303919061260f565b955095509550955095509550670de0b6b3a764000081109650505050505050919050565b600260009054906101000a900473ffffffffffffffffffffffffffffffffffffffff1681565b600360009054906101000a900473ffffffffffffffffffffffffffffffffffffffff1681565b61037b6111c6565b73ffffffffffffffffffffffffffffffffffffffff166103996106a6565b73ffffffffffffffffffffffffffffffffffffffff16146103ef576040517f08c379a00000000000000000000000000000000000000000000000000000000081526004016103e690612d74565b60405180910390fd5b60005b8282905081101561061957600073eeeeeeeeeeeeeeeeeeeeeeeeeeeeeeeeeeeeeeee73ffffffffffffffffffffffffffffffffffffffff16848484818110610463577f4e487b7100000000000000000000000000000000000000000000000000000000600052603260045260246000fd5b90506020020160208101906104789190612371565b73ffffffffffffffffffffffffffffffffffffffff1614156104ad574790506104a86104a26106a6565b826111ce565b610605565b8383838181106104e6577f4e487b7100000000000000000000000000000000000000000000000000000000600052603260045260246000fd5b90506020020160208101906104fb9190612371565b73ffffffffffffffffffffffffffffffffffffffff166370a08231306040518263ffffffff1660e01b81526004016105339190612af6565b60206040518083038186803b15801561054b57600080fd5b505afa15801561055f573d6000803e3d6000fd5b505050506040513d601f19601f8201168201806040525081019061058391906125e6565b90506106046105906106a6565b828686868181106105ca577f4e487b7100000000000000000000000000000000000000000000000000000000600052603260045260246000fd5b90506020020160208101906105df9190612371565b73ffffffffffffffffffffffffffffffffffffffff166112c29092919063ffffffff16565b5b5080806106119061314d565b9150506103f2565b505050565b6106266111c6565b73ffffffffffffffffffffffffffffffffffffffff166106446106a6565b73ffffffffffffffffffffffffffffffffffffffff161461069a576040517f08c379a000000000000000000000000000000000000000000000000000000000815260040161069190612d74565b60405180910390fd5b6106a46000611348565b565b60008060009054906101000a900473ffffffffffffffffffffffffffffffffffffffff16905090565b60008083838101906106e191906125bd565b905061073b8160000151826020015183604001518c8c600081811061072f577f4e487b7100000000000000000000000000000000000000000000000000000000600052603260045260246000fd5b9050602002013561140c565b6000816000015173ffffffffffffffffffffffffffffffffffffffff166370a08231306040518263ffffffff1660e01b815260040161077a9190612af6565b60206040518083038186803b15801561079257600080fd5b505afa1580156107a6573d6000803e3d6000fd5b505050506040513d601f19601f820116820180604052508101906107ca91906125e6565b90506107df82600001518360200151836114cf565b506000826020015173ffffffffffffffffffffffffffffffffffffffff166370a08231306040518263ffffffff1660e01b815260040161081f9190612af6565b60206040518083038186803b15801561083757600080fd5b505afa15801561084b573d6000803e3d6000fd5b505050506040513d601f19601f8201168201806040525081019061086f91906125e6565b90506000898960008181106108ad577f4e487b7100000000000000000000000000000000000000000000000000000000600052603260045260246000fd5b905060200201358c8c60008181106108ee577f4e487b7100000000000000000000000000000000000000000000000000000000600052603260045260246000fd5b905060200201356108ff9190612faf565b9050818111610943576040517f08c379a000000000000000000000000000000000000000000000000000000000815260040161093a90612d54565b60405180910390fd5b6109bb8e8e6000818110610980577f4e487b7100000000000000000000000000000000000000000000000000000000600052603260045260246000fd5b90506020020160208101906109959190612371565b7f0000000000000000000000000000000000000000000000000000000000000000611c5c565b60019450505050509998505050505050505050565b6109d86111c6565b73ffffffffffffffffffffffffffffffffffffffff166109f66106a6565b73ffffffffffffffffffffffffffffffffffffffff1614610a4c576040517f08c379a0000000000000000000000000000000000000000000000000000000008152600401610a4390612d74565b60405180910390fd5b610a558261024f565b610a94576040517f08c379a0000000000000000000000000000000000000000000000000000000008152600401610a8b90612cb4565b60405180910390fd5b60003090506000600167ffffffffffffffff811115610adc577f4e487b7100000000000000000000000000000000000000000000000000000000600052604160045260246000fd5b604051908082528060200260200182016040528015610b0a5781602001602082028036833780820191505090505b5090508581600081518110610b48577f4e487b7100000000000000000000000000000000000000000000000000000000600052603260045260246000fd5b602002602001019073ffffffffffffffffffffffffffffffffffffffff16908173ffffffffffffffffffffffffffffffffffffffff16815250506000600167ffffffffffffffff811115610bc5577f4e487b7100000000000000000000000000000000000000000000000000000000600052604160045260246000fd5b604051908082528060200260200182016040528015610bf35781602001602082028036833780820191505090505b5090508381600081518110610c31577f4e487b7100000000000000000000000000000000000000000000000000000000600052603260045260246000fd5b6020026020010181815250506000600167ffffffffffffffff811115610c80577f4e487b7100000000000000000000000000000000000000000000000000000000600052604160045260246000fd5b604051908082528060200260200182016040528015610cae5781602001602082028036833780820191505090505b509050600081600081518110610ced577f4e487b7100000000000000000000000000000000000000000000000000000000600052603260045260246000fd5b6020026020010181815250506000309050600060405180608001604052808a73ffffffffffffffffffffffffffffffffffffffff1681526020018b73ffffffffffffffffffffffffffffffffffffffff1681526020018973ffffffffffffffffffffffffffffffffffffffff16815260200188815250604051602001610d739190612e34565b604051602081830303815290604052905060007f000000000000000000000000000000000000000000000000000000000000000073ffffffffffffffffffffffffffffffffffffffff1663ab9c4b5d888888888888886040518863ffffffff1660e01b8152600401610deb9796959493929190612b8d565b600060405180830381600087803b158015610e0557600080fd5b505af1158015610e19573d6000803e3d6000fd5b5050505060008b73ffffffffffffffffffffffffffffffffffffffff166370a08231306040518263ffffffff1660e01b8152600401610e589190612af6565b60206040518083038186803b158015610e7057600080fd5b505afa158015610e84573d6000803e3d6000fd5b505050506040513d601f19601f82011682018060405250810190610ea891906125e6565b90506000811115610f49578b73ffffffffffffffffffffffffffffffffffffffff1663a9059cbb610ed76106a6565b836040518363ffffffff1660e01b8152600401610ef5929190612c18565b602060405180830381600087803b158015610f0f57600080fd5b505af1158015610f23573d6000803e3d6000fd5b505050506040513d601f19601f82011682018060405250810190610f479190612594565b505b60008b73ffffffffffffffffffffffffffffffffffffffff166370a08231306040518263ffffffff1660e01b8152600401610f849190612af6565b60206040518083038186803b158015610f9c57600080fd5b505afa158015610fb0573d6000803e3d6000fd5b505050506040513d601f19601f82011682018060405250810190610fd491906125e6565b90506000811115611075578b73ffffffffffffffffffffffffffffffffffffffff1663a9059cbb6110036106a6565b836040518363ffffffff1660e01b8152600401611021929190612c18565b602060405180830381600087803b15801561103b57600080fd5b505af115801561104f573d6000803e3d6000fd5b505050506040513d601f19601f820116820180604052508101906110739190612594565b505b50505050505050505050505050565b600160009054906101000a900473ffffffffffffffffffffffffffffffffffffffff1681565b7f000000000000000000000000000000000000000000000000000000000000000081565b6110d66111c6565b73ffffffffffffffffffffffffffffffffffffffff166110f46106a6565b73ffffffffffffffffffffffffffffffffffffffff161461114a576040517f08c379a000000000000000000000000000000000000000000000000000000000815260040161114190612d74565b60405180910390fd5b600073ffffffffffffffffffffffffffffffffffffffff168173ffffffffffffffffffffffffffffffffffffffff1614156111ba576040517f08c379a00000000000000000000000000000000000000000000000000000000081526004016111b190612cd4565b60405180910390fd5b6111c381611348565b50565b600033905090565b80471015611211576040517f08c379a000000000000000000000000000000000000000000000000000000000815260040161120890612d14565b60405180910390fd5b60008273ffffffffffffffffffffffffffffffffffffffff168260405161123790612ae1565b60006040518083038185875af1925050503d8060008114611274576040519150601f19603f3d011682016040523d82523d6000602084013e611279565b606091505b50509050806112bd576040517f08c379a00000000000000000000000000000000000000000000000000000000081526004016112b490612cf4565b60405180910390fd5b505050565b6113438363a9059cbb60e01b84846040516024016112e1929190612c18565b604051602081830303815290604052907bffffffffffffffffffffffffffffffffffffffffffffffffffffffff19166020820180517bffffffffffffffffffffffffffffffffffffffffffffffffffffffff8381831617835250505050611d45565b505050565b60008060009054906101000a900473ffffffffffffffffffffffffffffffffffffffff169050816000806101000a81548173ffffffffffffffffffffffffffffffffffffffff021916908373ffffffffffffffffffffffffffffffffffffffff1602179055508173ffffffffffffffffffffffffffffffffffffffff168173ffffffffffffffffffffffffffffffffffffffff167f8be0079c531659141344cd1fd0a4f28419497f9722a3daafe3b4186f6b6457e060405160405180910390a35050565b611436837f0000000000000000000000000000000000000000000000000000000000000000611c5c565b7f000000000000000000000000000000000000000000000000000000000000000073ffffffffffffffffffffffffffffffffffffffff1662a718a98585858560006040518663ffffffff1660e01b8152600401611497959493929190612b3a565b600060405180830381600087803b1580156114b157600080fd5b505af11580156114c5573d6000803e3d6000fd5b5050505050505050565b60008273ffffffffffffffffffffffffffffffffffffffff168473ffffffffffffffffffffffffffffffffffffffff16141561150d57819050611c55565b61153984600160009054906101000a900473ffffffffffffffffffffffffffffffffffffffff16611c5c565b6000600260009054906101000a900473ffffffffffffffffffffffffffffffffffffffff1673ffffffffffffffffffffffffffffffffffffffff1663e6a4390586866040518363ffffffff1660e01b8152600401611598929190612b11565b60206040518083038186803b1580156115b057600080fd5b505afa1580156115c4573d6000803e3d6000fd5b505050506040513d601f19601f820116820180604052508101906115e8919061239a565b9050600073ffffffffffffffffffffffffffffffffffffffff168173ffffffffffffffffffffffffffffffffffffffff16146118ef576000600267ffffffffffffffff811115611661577f4e487b7100000000000000000000000000000000000000000000000000000000600052604160045260246000fd5b60405190808252806020026020018201604052801561168f5781602001602082028036833780820191505090505b50905085816000815181106116cd577f4e487b7100000000000000000000000000000000000000000000000000000000600052603260045260246000fd5b602002602001019073ffffffffffffffffffffffffffffffffffffffff16908173ffffffffffffffffffffffffffffffffffffffff16815250508481600181518110611742577f4e487b7100000000000000000000000000000000000000000000000000000000600052603260045260246000fd5b602002602001019073ffffffffffffffffffffffffffffffffffffffff16908173ffffffffffffffffffffffffffffffffffffffff1681525050600160009054906101000a900473ffffffffffffffffffffffffffffffffffffffff1673ffffffffffffffffffffffffffffffffffffffff166338ed173985600184307ff0000000000000000000000000000000000000000000000000000000000000006040518663ffffffff1660e01b8152600401611800959493929190612e4f565b600060405180830381600087803b15801561181a57600080fd5b505af115801561182e573d6000803e3d6000fd5b505050506040513d6000823e3d601f19601f820116820180604052508101906118579190612553565b600182516118659190613005565b8151811061189c577f4e487b7100000000000000000000000000000000000000000000000000000000600052603260045260246000fd5b60200260200101519250600083116118e9576040517f08c379a00000000000000000000000000000000000000000000000000000000081526004016118e090612db4565b60405180910390fd5b50611c53565b6000600367ffffffffffffffff811115611932577f4e487b7100000000000000000000000000000000000000000000000000000000600052604160045260246000fd5b6040519080825280602002602001820160405280156119605781602001602082028036833780820191505090505b509050858160008151811061199e577f4e487b7100000000000000000000000000000000000000000000000000000000600052603260045260246000fd5b602002602001019073ffffffffffffffffffffffffffffffffffffffff16908173ffffffffffffffffffffffffffffffffffffffff1681525050600360009054906101000a900473ffffffffffffffffffffffffffffffffffffffff1681600181518110611a35577f4e487b7100000000000000000000000000000000000000000000000000000000600052603260045260246000fd5b602002602001019073ffffffffffffffffffffffffffffffffffffffff16908173ffffffffffffffffffffffffffffffffffffffff16815250508481600281518110611aaa577f4e487b7100000000000000000000000000000000000000000000000000000000600052603260045260246000fd5b602002602001019073ffffffffffffffffffffffffffffffffffffffff16908173ffffffffffffffffffffffffffffffffffffffff1681525050600160009054906101000a900473ffffffffffffffffffffffffffffffffffffffff1673ffffffffffffffffffffffffffffffffffffffff166338ed173985600184307ff0000000000000000000000000000000000000000000000000000000000000006040518663ffffffff1660e01b8152600401611b68959493929190612e4f565b600060405180830381600087803b158015611b8257600080fd5b505af1158015611b96573d6000803e3d6000fd5b505050506040513d6000823e3d601f19601f82011682018060405250810190611bbf9190612553565b60018251611bcd9190613005565b81518110611c04577f4e487b7100000000000000000000000000000000000000000000000000000000600052603260045260246000fd5b6020026020010151925060008311611c51576040517f08c379a0000000000000000000000000000000000000000000000000000000008152600401611c4890612d94565b60405180910390fd5b505b505b9392505050565b600082905060008173ffffffffffffffffffffffffffffffffffffffff1663dd62ed3e30856040518363ffffffff1660e01b8152600401611c9e929190612b11565b60206040518083038186803b158015611cb657600080fd5b505afa158015611cca573d6000803e3d6000fd5b505050506040513d601f19601f82011682018060405250810190611cee91906125e6565b1415611d4057611d3f827fffffffffffffffffffffffffffffffffffffffffffffffffffffffffffffffff8373ffffffffffffffffffffffffffffffffffffffff16611e0c9092919063ffffffff16565b5b505050565b6000611da7826040518060400160405280602081526020017f5361666545524332303a206c6f772d6c6576656c2063616c6c206661696c65648152508573ffffffffffffffffffffffffffffffffffffffff16611f6a9092919063ffffffff16565b9050600081511115611e075780806020019051810190611dc79190612594565b611e06576040517f08c379a0000000000000000000000000000000000000000000000000000000008152600401611dfd90612df4565b60405180910390fd5b5b505050565b6000811480611ea5575060008373ffffffffffffffffffffffffffffffffffffffff1663dd62ed3e30856040518363ffffffff1660e01b8152600401611e53929190612b11565b60206040518083038186803b158015611e6b57600080fd5b505afa158015611e7f573d6000803e3d6000fd5b505050506040513d601f19601f82011682018060405250810190611ea391906125e6565b145b611ee4576040517f08c379a0000000000000000000000000000000000000000000000000000000008152600401611edb90612e14565b60405180910390fd5b611f658363095ea7b360e01b8484604051602401611f03929190612c18565b604051602081830303815290604052907bffffffffffffffffffffffffffffffffffffffffffffffffffffffff19166020820180517bffffffffffffffffffffffffffffffffffffffffffffffffffffffff8381831617835250505050611d45565b505050565b6060611f798484600085611f82565b90509392505050565b606082471015611fc7576040517f08c379a0000000000000000000000000000000000000000000000000000000008152600401611fbe90612d34565b60405180910390fd5b611fd085612096565b61200f576040517f08c379a000000000000000000000000000000000000000000000000000000000815260040161200690612dd4565b60405180910390fd5b6000808673ffffffffffffffffffffffffffffffffffffffff1685876040516120389190612aca565b60006040518083038185875af1925050503d8060008114612075576040519150601f19603f3d011682016040523d82523d6000602084013e61207a565b606091505b509150915061208a8282866120b9565b92505050949350505050565b6000808273ffffffffffffffffffffffffffffffffffffffff163b119050919050565b606083156120c957829050612119565b6000835111156120dc5782518084602001fd5b816040517f08c379a00000000000000000000000000000000000000000000000000000000081526004016121109190612c92565b60405180910390fd5b9392505050565b600061213361212e84612ece565b612ea9565b9050808382526020820190508285602086028201111561215257600080fd5b60005b858110156121825781612168888261235c565b845260208401935060208301925050600181019050612155565b5050509392505050565b60008135905061219b816134d8565b92915050565b6000815190506121b0816134d8565b92915050565b60008083601f8401126121c857600080fd5b8235905067ffffffffffffffff8111156121e157600080fd5b6020830191508360208202830111156121f957600080fd5b9250929050565b60008083601f84011261221257600080fd5b8235905067ffffffffffffffff81111561222b57600080fd5b60208301915083602082028301111561224357600080fd5b9250929050565b600082601f83011261225b57600080fd5b815161226b848260208601612120565b91505092915050565b600081519050612283816134ef565b92915050565b60008083601f84011261229b57600080fd5b8235905067ffffffffffffffff8111156122b457600080fd5b6020830191508360018202830111156122cc57600080fd5b9250929050565b6000608082840312156122e557600080fd5b6122ef6080612ea9565b905060006122ff8482850161218c565b60008301525060206123138482850161218c565b60208301525060406123278482850161218c565b604083015250606061233b84828501612347565b60608301525092915050565b60008135905061235681613506565b92915050565b60008151905061236b81613506565b92915050565b60006020828403121561238357600080fd5b60006123918482850161218c565b91505092915050565b6000602082840312156123ac57600080fd5b60006123ba848285016121a1565b91505092915050565b600080600080608085870312156123d957600080fd5b60006123e78782880161218c565b94505060206123f88782880161218c565b93505060406124098782880161218c565b925050606061241a87828801612347565b91505092959194509250565b6000806020838503121561243957600080fd5b600083013567ffffffffffffffff81111561245357600080fd5b61245f858286016121b6565b92509250509250929050565b600080600080600080600080600060a08a8c03121561248957600080fd5b60008a013567ffffffffffffffff8111156124a357600080fd5b6124af8c828d016121b6565b995099505060208a013567ffffffffffffffff8111156124ce57600080fd5b6124da8c828d01612200565b975097505060408a013567ffffffffffffffff8111156124f957600080fd5b6125058c828d01612200565b955095505060606125188c828d0161218c565b93505060808a013567ffffffffffffffff81111561253557600080fd5b6125418c828d01612289565b92509250509295985092959850929598565b60006020828403121561256557600080fd5b600082015167ffffffffffffffff81111561257f57600080fd5b61258b8482850161224a565b91505092915050565b6000602082840312156125a657600080fd5b60006125b484828501612274565b91505092915050565b6000608082840312156125cf57600080fd5b60006125dd848285016122d3565b91505092915050565b6000602082840312156125f857600080fd5b60006126068482850161235c565b91505092915050565b60008060008060008060c0878903121561262857600080fd5b600061263689828a0161235c565b965050602061264789828a0161235c565b955050604061265889828a0161235c565b945050606061266989828a0161235c565b935050608061267a89828a0161235c565b92505060a061268b89828a0161235c565b9150509295509295509295565b60006126a483836126c8565b60208301905092915050565b60006126bc8383612aac565b60208301905092915050565b6126d181613039565b82525050565b6126e081613039565b82525050565b60006126f182612f1a565b6126fb8185612f60565b935061270683612efa565b8060005b8381101561273757815161271e8882612698565b975061272983612f46565b92505060018101905061270a565b5085935050505092915050565b600061274f82612f25565b6127598185612f71565b935061276483612f0a565b8060005b8381101561279557815161277c88826126b0565b975061278783612f53565b925050600181019050612768565b5085935050505092915050565b6127ab8161304b565b82525050565b60006127bc82612f30565b6127c68185612f82565b93506127d68185602086016130e9565b6127df816131f4565b840191505092915050565b60006127f582612f30565b6127ff8185612f93565b935061280f8185602086016130e9565b80840191505092915050565b6128248161308f565b82525050565b612833816130b3565b82525050565b612842816130d7565b82525050565b600061285382612f3b565b61285d8185612f9e565b935061286d8185602086016130e9565b612876816131f4565b840191505092915050565b600061288e601083612f9e565b915061289982613205565b602082019050919050565b60006128b1602683612f9e565b91506128bc8261322e565b604082019050919050565b60006128d4603a83612f9e565b91506128df8261327d565b604082019050919050565b60006128f7601d83612f9e565b9150612902826132cc565b602082019050919050565b600061291a602683612f9e565b9150612925826132f5565b604082019050919050565b600061293d602b83612f9e565b915061294882613344565b604082019050919050565b6000612960602083612f9e565b915061296b82613393565b602082019050919050565b6000612983601783612f9e565b915061298e826133bc565b602082019050919050565b60006129a6601783612f9e565b91506129b1826133e5565b602082019050919050565b60006129c9600083612f93565b91506129d48261340e565b600082019050919050565b60006129ec601d83612f9e565b91506129f782613411565b602082019050919050565b6000612a0f602a83612f9e565b9150612a1a8261343a565b604082019050919050565b6000612a32603683612f9e565b9150612a3d82613489565b604082019050919050565b608082016000820151612a5e60008501826126c8565b506020820151612a7160208501826126c8565b506040820151612a8460408501826126c8565b506060820151612a976060850182612aac565b50505050565b612aa681613057565b82525050565b612ab581613085565b82525050565b612ac481613085565b82525050565b6000612ad682846127ea565b915081905092915050565b6000612aec826129bc565b9150819050919050565b6000602082019050612b0b60008301846126d7565b92915050565b6000604082019050612b2660008301856126d7565b612b3360208301846126d7565b9392505050565b600060a082019050612b4f60008301886126d7565b612b5c60208301876126d7565b612b6960408301866126d7565b612b766060830185612abb565b612b8360808301846127a2565b9695505050505050565b600060e082019050612ba2600083018a6126d7565b8181036020830152612bb481896126e6565b90508181036040830152612bc88188612744565b90508181036060830152612bdc8187612744565b9050612beb60808301866126d7565b81810360a0830152612bfd81856127b1565b9050612c0c60c0830184612a9d565b98975050505050505050565b6000604082019050612c2d60008301856126d7565b612c3a6020830184612abb565b9392505050565b6000602082019050612c5660008301846127a2565b92915050565b6000602082019050612c71600083018461281b565b92915050565b6000602082019050612c8c600083018461282a565b92915050565b60006020820190508181036000830152612cac8184612848565b905092915050565b60006020820190508181036000830152612ccd81612881565b9050919050565b60006020820190508181036000830152612ced816128a4565b9050919050565b60006020820190508181036000830152612d0d816128c7565b9050919050565b60006020820190508181036000830152612d2d816128ea565b9050919050565b60006020820190508181036000830152612d4d8161290d565b9050919050565b60006020820190508181036000830152612d6d81612930565b9050919050565b60006020820190508181036000830152612d8d81612953565b9050919050565b60006020820190508181036000830152612dad81612976565b9050919050565b60006020820190508181036000830152612dcd81612999565b9050919050565b60006020820190508181036000830152612ded816129df565b9050919050565b60006020820190508181036000830152612e0d81612a02565b9050919050565b60006020820190508181036000830152612e2d81612a25565b9050919050565b6000608082019050612e496000830184612a48565b92915050565b600060a082019050612e646000830188612abb565b612e716020830187612839565b8181036040830152612e8381866126e6565b9050612e9260608301856126d7565b612e9f6080830184612abb565b9695505050505050565b6000612eb3612ec4565b9050612ebf828261311c565b919050565b6000604051905090565b600067ffffffffffffffff821115612ee957612ee86131c5565b5b602082029050602081019050919050565b6000819050602082019050919050565b6000819050602082019050919050565b600081519050919050565b600081519050919050565b600081519050919050565b600081519050919050565b6000602082019050919050565b6000602082019050919050565b600082825260208201905092915050565b600082825260208201905092915050565b600082825260208201905092915050565b600081905092915050565b600082825260208201905092915050565b6000612fba82613085565b9150612fc583613085565b9250827fffffffffffffffffffffffffffffffffffffffffffffffffffffffffffffffff03821115612ffa57612ff9613196565b5b828201905092915050565b600061301082613085565b915061301b83613085565b92508282101561302e5761302d613196565b5b828203905092915050565b600061304482613065565b9050919050565b60008115159050919050565b600061ffff82169050919050565b600073ffffffffffffffffffffffffffffffffffffffff82169050919050565b6000819050919050565b600061309a826130a1565b9050919050565b60006130ac82613065565b9050919050565b60006130be826130c5565b9050919050565b60006130d082613065565b9050919050565b60006130e282613085565b9050919050565b60005b838110156131075780820151818401526020810190506130ec565b83811115613116576000848401525b50505050565b613125826131f4565b810181811067ffffffffffffffff82111715613144576131436131c5565b5b80604052505050565b600061315882613085565b91507fffffffffffffffffffffffffffffffffffffffffffffffffffffffffffffffff82141561318b5761318a613196565b5b600182019050919050565b7f4e487b7100000000000000000000000000000000000000000000000000000000600052601160045260246000fd5b7f4e487b7100000000000000000000000000000000000000000000000000000000600052604160045260246000fd5b6000601f19601f8301169050919050565b7f7573657220776173206865616c74687900000000000000000000000000000000600082015250565b7f4f776e61626c653a206e6577206f776e657220697320746865207a65726f206160008201527f6464726573730000000000000000000000000000000000000000000000000000602082015250565b7f416464726573733a20756e61626c6520746f2073656e642076616c75652c207260008201527f6563697069656e74206d61792068617665207265766572746564000000000000602082015250565b7f416464726573733a20696e73756666696369656e742062616c616e6365000000600082015250565b7f416464726573733a20696e73756666696369656e742062616c616e636520666f60008201527f722063616c6c0000000000000000000000000000000000000000000000000000602082015250565b7f6469646e742774207265636569766520656e6f756768206465627420746f6b6560008201527f6e7320746f207265706179000000000000000000000000000000000000000000602082015250565b7f4f776e61626c653a2063616c6c6572206973206e6f7420746865206f776e6572600082015250565b7f4572726f72205377617070696e6720546f6b656e732033000000000000000000600082015250565b7f4572726f72205377617070696e6720546f6b656e732032000000000000000000600082015250565b50565b7f416464726573733a2063616c6c20746f206e6f6e2d636f6e7472616374000000600082015250565b7f5361666545524332303a204552433230206f7065726174696f6e20646964206e60008201527f6f74207375636365656400000000000000000000000000000000000000000000602082015250565b7f5361666545524332303a20617070726f76652066726f6d206e6f6e2d7a65726f60008201527f20746f206e6f6e2d7a65726f20616c6c6f77616e636500000000000000000000602082015250565b6134e181613039565b81146134ec57600080fd5b50565b6134f88161304b565b811461350357600080fd5b50565b61350f81613085565b811461351a57600080fd5b5056fea26469706673582212207c99f0cd6925c02875e7cdb530cd29534d2cf8bae9eb61627673c2499e5bc36864736f6c63430008040033",
  "linkReferences": {},
  "deployedLinkReferences": {}
}