{
  "_format": "hh-sol-artifact-1",
  "contractName": "AaveLiquidator",
  "sourceName": "contracts/AaveLiquidator.sol",
  "abi": [
    {
      "inputs": [
        {
          "internalType": "contract ILendingPoolAddressesProvider",
          "name": "_addressProvider",
          "type": "address"
        }
      ],
      "stateMutability": "nonpayable",
      "type": "constructor"
    },
    {
      "anonymous": false,
      "inputs": [
        {
          "indexed": true,
          "internalType": "address",
          "name": "previousOwner",
          "type": "address"
        },
        {
          "indexed": true,
          "internalType": "address",
          "name": "newOwner",
          "type": "address"
        }
      ],
      "name": "OwnershipTransferred",
      "type": "event"
    },
    {
      "inputs": [],
      "name": "ADDRESSES_PROVIDER",
      "outputs": [
        {
          "internalType": "contract ILendingPoolAddressesProvider",
          "name": "",
          "type": "address"
        }
      ],
      "stateMutability": "view",
      "type": "function"
    },
    {
      "inputs": [],
      "name": "LENDING_POOL",
      "outputs": [
        {
          "internalType": "contract ILendingPool",
          "name": "",
          "type": "address"
        }
      ],
      "stateMutability": "view",
      "type": "function"
    },
    {
      "inputs": [],
      "name": "bal",
      "outputs": [
        {
          "internalType": "address",
          "name": "",
          "type": "address"
        }
      ],
      "stateMutability": "view",
      "type": "function"
    },
    {
      "inputs": [],
      "name": "balancerVault",
      "outputs": [
        {
          "internalType": "address",
          "name": "",
          "type": "address"
        }
      ],
      "stateMutability": "view",
      "type": "function"
    },
    {
      "inputs": [
        {
          "internalType": "address[]",
          "name": "assets",
          "type": "address[]"
        },
        {
          "internalType": "uint256[]",
          "name": "amounts",
          "type": "uint256[]"
        },
        {
          "internalType": "uint256[]",
          "name": "premiums",
          "type": "uint256[]"
        },
        {
          "internalType": "address",
          "name": "initiator",
          "type": "address"
        },
        {
          "internalType": "bytes",
          "name": "params",
          "type": "bytes"
        }
      ],
      "name": "executeOperation",
      "outputs": [
        {
          "internalType": "bool",
          "name": "",
          "type": "bool"
        }
      ],
      "stateMutability": "nonpayable",
      "type": "function"
    },
    {
      "inputs": [],
      "name": "funds",
      "outputs": [
        {
          "internalType": "address",
          "name": "sender",
          "type": "address"
        },
        {
          "internalType": "bool",
          "name": "fromInternalBalance",
          "type": "bool"
        },
        {
          "internalType": "address payable",
          "name": "recipient",
          "type": "address"
        },
        {
          "internalType": "bool",
          "name": "toInternalBalance",
          "type": "bool"
        }
      ],
      "stateMutability": "view",
      "type": "function"
    },
    {
      "inputs": [
        {
          "internalType": "address",
          "name": "_debt",
          "type": "address"
        },
        {
          "internalType": "address",
          "name": "_collateral",
          "type": "address"
        },
        {
          "internalType": "address",
          "name": "_user",
          "type": "address"
        },
        {
          "internalType": "uint256",
          "name": "_debtToPay",
          "type": "uint256"
        }
      ],
      "name": "liquidate",
      "outputs": [],
      "stateMutability": "nonpayable",
      "type": "function"
    },
    {
      "inputs": [],
      "name": "owner",
      "outputs": [
        {
          "internalType": "address",
          "name": "",
          "type": "address"
        }
      ],
      "stateMutability": "view",
      "type": "function"
    },
    {
      "inputs": [],
      "name": "renounceOwnership",
      "outputs": [],
      "stateMutability": "nonpayable",
      "type": "function"
    },
    {
      "inputs": [],
      "name": "swapKind",
      "outputs": [
        {
          "internalType": "enum IBalancerVault.SwapKind",
          "name": "",
          "type": "uint8"
        }
      ],
      "stateMutability": "view",
      "type": "function"
    },
    {
      "inputs": [
        {
          "internalType": "address",
          "name": "newOwner",
          "type": "address"
        }
      ],
      "name": "transferOwnership",
      "outputs": [],
      "stateMutability": "nonpayable",
      "type": "function"
    },
    {
      "inputs": [
        {
          "internalType": "address",
          "name": "_user",
          "type": "address"
        }
      ],
      "name": "unhealthyUser",
      "outputs": [
        {
          "internalType": "bool",
          "name": "",
          "type": "bool"
        }
      ],
      "stateMutability": "view",
      "type": "function"
    },
    {
      "inputs": [],
      "name": "uniswapFactoryAddress",
      "outputs": [
        {
          "internalType": "address",
          "name": "",
          "type": "address"
        }
      ],
      "stateMutability": "view",
      "type": "function"
    },
    {
      "inputs": [],
      "name": "uniswapRouter02Address",
      "outputs": [
        {
          "internalType": "address",
          "name": "",
          "type": "address"
        }
      ],
      "stateMutability": "view",
      "type": "function"
    },
    {
      "inputs": [],
      "name": "weth",
      "outputs": [
        {
          "internalType": "address",
          "name": "",
          "type": "address"
        }
      ],
      "stateMutability": "view",
      "type": "function"
    },
    {
      "inputs": [
        {
          "internalType": "address[]",
          "name": "tokens",
          "type": "address[]"
        }
      ],
      "name": "withdrawTokens",
      "outputs": [],
      "stateMutability": "nonpayable",
      "type": "function"
    }
  ],
  "bytecode": "0x60c060405273a5e0829caced8ffdd4de3c43696c57f7d7a678ff600160006101000a81548173ffffffffffffffffffffffffffffffffffffffff021916908373ffffffffffffffffffffffffffffffffffffffff160217905550735757371414417b8c6caad45baef941abc7d3ab32600260006101000a81548173ffffffffffffffffffffffffffffffffffffffff021916908373ffffffffffffffffffffffffffffffffffffffff16021790555073ba12222222228d8ba445958a75a0704d566bf2c8600360006101000a81548173ffffffffffffffffffffffffffffffffffffffff021916908373ffffffffffffffffffffffffffffffffffffffff160217905550737ceb23fd6bc0add59e62ac25578270cff1b9f619600460006101000a81548173ffffffffffffffffffffffffffffffffffffffff021916908373ffffffffffffffffffffffffffffffffffffffff160217905550739a71012b13ca4d3d0cdc72a177df3ef03b0e76a3600560006101000a81548173ffffffffffffffffffffffffffffffffffffffff021916908373ffffffffffffffffffffffffffffffffffffffff160217905550348015620001ba57600080fd5b50604051620044cc380380620044cc8339818101604052810190620001e0919062000542565b62000200620001f46200041c60201b60201c565b6200042460201b60201c565b8073ffffffffffffffffffffffffffffffffffffffff1660808173ffffffffffffffffffffffffffffffffffffffff1660601b815250508073ffffffffffffffffffffffffffffffffffffffff16630261bf8b6040518163ffffffff1660e01b815260040160206040518083038186803b1580156200027e57600080fd5b505afa15801562000293573d6000803e3d6000fd5b505050506040513d601f19601f82011682018060405250810190620002b9919062000516565b73ffffffffffffffffffffffffffffffffffffffff1660a08173ffffffffffffffffffffffffffffffffffffffff1660601b8152505060405180608001604052803073ffffffffffffffffffffffffffffffffffffffff1681526020016000151581526020013073ffffffffffffffffffffffffffffffffffffffff16815260200160001515815250600660008201518160000160006101000a81548173ffffffffffffffffffffffffffffffffffffffff021916908373ffffffffffffffffffffffffffffffffffffffff16021790555060208201518160000160146101000a81548160ff02191690831515021790555060408201518160010160006101000a81548173ffffffffffffffffffffffffffffffffffffffff021916908373ffffffffffffffffffffffffffffffffffffffff16021790555060608201518160010160146101000a81548160ff02191690831515021790555090505050620005ea565b600033905090565b60008060009054906101000a900473ffffffffffffffffffffffffffffffffffffffff169050816000806101000a81548173ffffffffffffffffffffffffffffffffffffffff021916908373ffffffffffffffffffffffffffffffffffffffff1602179055508173ffffffffffffffffffffffffffffffffffffffff168173ffffffffffffffffffffffffffffffffffffffff167f8be0079c531659141344cd1fd0a4f28419497f9722a3daafe3b4186f6b6457e060405160405180910390a35050565b600081519050620004f981620005b6565b92915050565b6000815190506200051081620005d0565b92915050565b6000602082840312156200052957600080fd5b60006200053984828501620004e8565b91505092915050565b6000602082840312156200055557600080fd5b60006200056584828501620004ff565b91505092915050565b60006200057b8262000596565b9050919050565b60006200058f826200056e565b9050919050565b600073ffffffffffffffffffffffffffffffffffffffff82169050919050565b620005c1816200056e565b8114620005cd57600080fd5b50565b620005db8162000582565b8114620005e757600080fd5b50565b60805160601c60a05160601c613e93620006396000396000818161034901528181610abc01528181610ead015281816111d1015281816115af01526115d5015260006102f40152613e936000f3fe608060405234801561001057600080fd5b50600436106101005760003560e01c8063715018a611610097578063b4625e2f11610066578063b4625e2f14610279578063b4dcfc7714610297578063c89f2ce4146102b5578063f2fde38b146102d657610100565b8063715018a6146102055780638da5cb5b1461020f578063920f5c841461022d578063aab3f8681461025d57610100565b80633d79d1c8116100d35780633d79d1c81461018f5780633fc8cef3146101ad5780635ecb16cd146101cb578063671f6a26146101e757610100565b80630542975c14610105578063158274a5146101235780631d340cb5146101415780633655ac3c14610171575b600080fd5b61010d6102f2565b60405161011a919061337c565b60405180910390f35b61012b610316565b60405161013891906131d1565b60405180910390f35b61015b60048036038101906101569190612898565b61033c565b6040516101689190613361565b60405180910390f35b610179610414565b60405161018691906131d1565b60405180910390f35b61019761043a565b6040516101a491906131d1565b60405180910390f35b6101b5610460565b6040516101c291906131d1565b60405180910390f35b6101e560048036038101906101e0919061294d565b610486565b005b6101ef610731565b6040516101fc91906133b2565b60405180910390f35b61020d610744565b005b6102176107cc565b60405161022491906131d1565b60405180910390f35b61024760048036038101906102429190612992565b6107f5565b6040516102549190613361565b60405180910390f35b610277600480360381019061027291906128ea565b610af5565b005b6102816111a9565b60405161028e91906131d1565b60405180910390f35b61029f6111cf565b6040516102ac9190613397565b60405180910390f35b6102bd6111f3565b6040516102cd94939291906132f3565b60405180910390f35b6102f060048036038101906102eb9190612898565b61126b565b005b7f000000000000000000000000000000000000000000000000000000000000000081565b600360009054906101000a900473ffffffffffffffffffffffffffffffffffffffff1681565b60008060008060008060007f000000000000000000000000000000000000000000000000000000000000000073ffffffffffffffffffffffffffffffffffffffff1663bf92857c896040518263ffffffff1660e01b81526004016103a091906131d1565b60c06040518083038186803b1580156103b857600080fd5b505afa1580156103cc573d6000803e3d6000fd5b505050506040513d601f19601f820116820180604052508101906103f09190612b36565b955095509550955095509550670de0b6b3a764000081109650505050505050919050565b600260009054906101000a900473ffffffffffffffffffffffffffffffffffffffff1681565b600560009054906101000a900473ffffffffffffffffffffffffffffffffffffffff1681565b600460009054906101000a900473ffffffffffffffffffffffffffffffffffffffff1681565b61048e611363565b73ffffffffffffffffffffffffffffffffffffffff166104ac6107cc565b73ffffffffffffffffffffffffffffffffffffffff1614610502576040517f08c379a00000000000000000000000000000000000000000000000000000000081526004016104f9906134af565b60405180910390fd5b60005b8282905081101561072c57600073eeeeeeeeeeeeeeeeeeeeeeeeeeeeeeeeeeeeeeee73ffffffffffffffffffffffffffffffffffffffff16848484818110610576577f4e487b7100000000000000000000000000000000000000000000000000000000600052603260045260246000fd5b905060200201602081019061058b9190612898565b73ffffffffffffffffffffffffffffffffffffffff1614156105c0574790506105bb6105b56107cc565b8261136b565b610718565b8383838181106105f9577f4e487b7100000000000000000000000000000000000000000000000000000000600052603260045260246000fd5b905060200201602081019061060e9190612898565b73ffffffffffffffffffffffffffffffffffffffff166370a08231306040518263ffffffff1660e01b815260040161064691906131d1565b60206040518083038186803b15801561065e57600080fd5b505afa158015610672573d6000803e3d6000fd5b505050506040513d601f19601f820116820180604052508101906106969190612b0d565b90506107176106a36107cc565b828686868181106106dd577f4e487b7100000000000000000000000000000000000000000000000000000000600052603260045260246000fd5b90506020020160208101906106f29190612898565b73ffffffffffffffffffffffffffffffffffffffff1661145f9092919063ffffffff16565b5b508080610724906139e1565b915050610505565b505050565b600560149054906101000a900460ff1681565b61074c611363565b73ffffffffffffffffffffffffffffffffffffffff1661076a6107cc565b73ffffffffffffffffffffffffffffffffffffffff16146107c0576040517f08c379a00000000000000000000000000000000000000000000000000000000081526004016107b7906134af565b60405180910390fd5b6107ca60006114e5565b565b60008060009054906101000a900473ffffffffffffffffffffffffffffffffffffffff16905090565b60008083838101906108079190612ae4565b90506108618160000151826020015183604001518c8c6000818110610855577f4e487b7100000000000000000000000000000000000000000000000000000000600052603260045260246000fd5b905060200201356115a9565b6000816000015173ffffffffffffffffffffffffffffffffffffffff166370a08231306040518263ffffffff1660e01b81526004016108a091906131d1565b60206040518083038186803b1580156108b857600080fd5b505afa1580156108cc573d6000803e3d6000fd5b505050506040513d601f19601f820116820180604052508101906108f09190612b0d565b9050610905826000015183602001518361166c565b6000826020015173ffffffffffffffffffffffffffffffffffffffff166370a08231306040518263ffffffff1660e01b815260040161094491906131d1565b60206040518083038186803b15801561095c57600080fd5b505afa158015610970573d6000803e3d6000fd5b505050506040513d601f19601f820116820180604052508101906109949190612b0d565b90506000898960008181106109d2577f4e487b7100000000000000000000000000000000000000000000000000000000600052603260045260246000fd5b905060200201358c8c6000818110610a13577f4e487b7100000000000000000000000000000000000000000000000000000000600052603260045260246000fd5b90506020020135610a249190613767565b9050818110610a68576040517f08c379a0000000000000000000000000000000000000000000000000000000008152600401610a5f9061348f565b60405180910390fd5b610ae08e8e6000818110610aa5577f4e487b7100000000000000000000000000000000000000000000000000000000600052603260045260246000fd5b9050602002016020810190610aba9190612898565b7f0000000000000000000000000000000000000000000000000000000000000000611855565b60019450505050509998505050505050505050565b610afd611363565b73ffffffffffffffffffffffffffffffffffffffff16610b1b6107cc565b73ffffffffffffffffffffffffffffffffffffffff1614610b71576040517f08c379a0000000000000000000000000000000000000000000000000000000008152600401610b68906134af565b60405180910390fd5b610b7a8261033c565b610bb9576040517f08c379a0000000000000000000000000000000000000000000000000000000008152600401610bb0906133ef565b60405180910390fd5b60003090506000600167ffffffffffffffff811115610c01577f4e487b7100000000000000000000000000000000000000000000000000000000600052604160045260246000fd5b604051908082528060200260200182016040528015610c2f5781602001602082028036833780820191505090505b5090508581600081518110610c6d577f4e487b7100000000000000000000000000000000000000000000000000000000600052603260045260246000fd5b602002602001019073ffffffffffffffffffffffffffffffffffffffff16908173ffffffffffffffffffffffffffffffffffffffff16815250506000600167ffffffffffffffff811115610cea577f4e487b7100000000000000000000000000000000000000000000000000000000600052604160045260246000fd5b604051908082528060200260200182016040528015610d185781602001602082028036833780820191505090505b5090508381600081518110610d56577f4e487b7100000000000000000000000000000000000000000000000000000000600052603260045260246000fd5b6020026020010181815250506000600167ffffffffffffffff811115610da5577f4e487b7100000000000000000000000000000000000000000000000000000000600052604160045260246000fd5b604051908082528060200260200182016040528015610dd35781602001602082028036833780820191505090505b509050600081600081518110610e12577f4e487b7100000000000000000000000000000000000000000000000000000000600052603260045260246000fd5b6020026020010181815250506000309050600060405180608001604052808a73ffffffffffffffffffffffffffffffffffffffff1681526020018b73ffffffffffffffffffffffffffffffffffffffff1681526020018973ffffffffffffffffffffffffffffffffffffffff16815260200188815250604051602001610e98919061358f565b604051602081830303815290604052905060007f000000000000000000000000000000000000000000000000000000000000000073ffffffffffffffffffffffffffffffffffffffff1663ab9c4b5d888888888888886040518863ffffffff1660e01b8152600401610f109796959493929190613268565b600060405180830381600087803b158015610f2a57600080fd5b505af1158015610f3e573d6000803e3d6000fd5b5050505060008b73ffffffffffffffffffffffffffffffffffffffff166370a08231306040518263ffffffff1660e01b8152600401610f7d91906131d1565b60206040518083038186803b158015610f9557600080fd5b505afa158015610fa9573d6000803e3d6000fd5b505050506040513d601f19601f82011682018060405250810190610fcd9190612b0d565b9050600081111561106e578b73ffffffffffffffffffffffffffffffffffffffff1663a9059cbb610ffc6107cc565b836040518363ffffffff1660e01b815260040161101a929190613338565b602060405180830381600087803b15801561103457600080fd5b505af1158015611048573d6000803e3d6000fd5b505050506040513d601f19601f8201168201806040525081019061106c9190612abb565b505b60008b73ffffffffffffffffffffffffffffffffffffffff166370a08231306040518263ffffffff1660e01b81526004016110a991906131d1565b60206040518083038186803b1580156110c157600080fd5b505afa1580156110d5573d6000803e3d6000fd5b505050506040513d601f19601f820116820180604052508101906110f99190612b0d565b9050600081111561119a578b73ffffffffffffffffffffffffffffffffffffffff1663a9059cbb6111286107cc565b836040518363ffffffff1660e01b8152600401611146929190613338565b602060405180830381600087803b15801561116057600080fd5b505af1158015611174573d6000803e3d6000fd5b505050506040513d601f19601f820116820180604052508101906111989190612abb565b505b50505050505050505050505050565b600160009054906101000a900473ffffffffffffffffffffffffffffffffffffffff1681565b7f000000000000000000000000000000000000000000000000000000000000000081565b60068060000160009054906101000a900473ffffffffffffffffffffffffffffffffffffffff16908060000160149054906101000a900460ff16908060010160009054906101000a900473ffffffffffffffffffffffffffffffffffffffff16908060010160149054906101000a900460ff16905084565b611273611363565b73ffffffffffffffffffffffffffffffffffffffff166112916107cc565b73ffffffffffffffffffffffffffffffffffffffff16146112e7576040517f08c379a00000000000000000000000000000000000000000000000000000000081526004016112de906134af565b60405180910390fd5b600073ffffffffffffffffffffffffffffffffffffffff168173ffffffffffffffffffffffffffffffffffffffff161415611357576040517f08c379a000000000000000000000000000000000000000000000000000000000815260040161134e9061340f565b60405180910390fd5b611360816114e5565b50565b600033905090565b804710156113ae576040517f08c379a00000000000000000000000000000000000000000000000000000000081526004016113a59061344f565b60405180910390fd5b60008273ffffffffffffffffffffffffffffffffffffffff16826040516113d4906131bc565b60006040518083038185875af1925050503d8060008114611411576040519150601f19603f3d011682016040523d82523d6000602084013e611416565b606091505b505090508061145a576040517f08c379a00000000000000000000000000000000000000000000000000000000081526004016114519061342f565b60405180910390fd5b505050565b6114e08363a9059cbb60e01b848460405160240161147e929190613338565b604051602081830303815290604052907bffffffffffffffffffffffffffffffffffffffffffffffffffffffff19166020820180517bffffffffffffffffffffffffffffffffffffffffffffffffffffffff838183161783525050505061193e565b505050565b60008060009054906101000a900473ffffffffffffffffffffffffffffffffffffffff169050816000806101000a81548173ffffffffffffffffffffffffffffffffffffffff021916908373ffffffffffffffffffffffffffffffffffffffff1602179055508173ffffffffffffffffffffffffffffffffffffffff168173ffffffffffffffffffffffffffffffffffffffff167f8be0079c531659141344cd1fd0a4f28419497f9722a3daafe3b4186f6b6457e060405160405180910390a35050565b6115d3837f0000000000000000000000000000000000000000000000000000000000000000611855565b7f000000000000000000000000000000000000000000000000000000000000000073ffffffffffffffffffffffffffffffffffffffff1662a718a98585858560006040518663ffffffff1660e01b8152600401611634959493929190613215565b600060405180830381600087803b15801561164e57600080fd5b505af1158015611662573d6000803e3d6000fd5b5050505050505050565b600560009054906101000a900473ffffffffffffffffffffffffffffffffffffffff1673ffffffffffffffffffffffffffffffffffffffff168373ffffffffffffffffffffffffffffffffffffffff1614806117155750600560009054906101000a900473ffffffffffffffffffffffffffffffffffffffff1673ffffffffffffffffffffffffffffffffffffffff168273ffffffffffffffffffffffffffffffffffffffff16145b1561184357600460009054906101000a900473ffffffffffffffffffffffffffffffffffffffff1673ffffffffffffffffffffffffffffffffffffffff168273ffffffffffffffffffffffffffffffffffffffff1614806117c35750600460009054906101000a900473ffffffffffffffffffffffffffffffffffffffff1673ffffffffffffffffffffffffffffffffffffffff168373ffffffffffffffffffffffffffffffffffffffff16145b156118035760007f0297e37f1873d2dab4487aa67cd56b58e2f2787500010000000000000000000260001b90506117fc81858585611a05565b505061183e565b6040517f08c379a0000000000000000000000000000000000000000000000000000000008152600401611835906134cf565b60405180910390fd5b611850565b61184e838383611ba6565b505b505050565b600082905060008173ffffffffffffffffffffffffffffffffffffffff1663dd62ed3e30856040518363ffffffff1660e01b81526004016118979291906131ec565b60206040518083038186803b1580156118af57600080fd5b505afa1580156118c3573d6000803e3d6000fd5b505050506040513d601f19601f820116820180604052508101906118e79190612b0d565b141561193957611938827fffffffffffffffffffffffffffffffffffffffffffffffffffffffffffffffff8373ffffffffffffffffffffffffffffffffffffffff166123339092919063ffffffff16565b5b505050565b60006119a0826040518060400160405280602081526020017f5361666545524332303a206c6f772d6c6576656c2063616c6c206661696c65648152508573ffffffffffffffffffffffffffffffffffffffff166124919092919063ffffffff16565b9050600081511115611a0057808060200190518101906119c09190612abb565b6119ff576040517f08c379a00000000000000000000000000000000000000000000000000000000081526004016119f69061354f565b60405180910390fd5b5b505050565b6000611a3384600360009054906101000a900473ffffffffffffffffffffffffffffffffffffffff16611855565b60006040518060c00160405280878152602001600560149054906101000a900460ff166001811115611a8e577f4e487b7100000000000000000000000000000000000000000000000000000000600052602160045260246000fd5b81526020018673ffffffffffffffffffffffffffffffffffffffff1681526020018573ffffffffffffffffffffffffffffffffffffffff168152602001848152602001604051806020016040528060008152508152509050600360009054906101000a900473ffffffffffffffffffffffffffffffffffffffff1673ffffffffffffffffffffffffffffffffffffffff166352bbbe298260066001426040518563ffffffff1660e01b8152600401611b4994939291906135aa565b602060405180830381600087803b158015611b6357600080fd5b505af1158015611b77573d6000803e3d6000fd5b505050506040513d601f19601f82011682018060405250810190611b9b9190612b0d565b915050949350505050565b60008273ffffffffffffffffffffffffffffffffffffffff168473ffffffffffffffffffffffffffffffffffffffff161415611be45781905061232c565b611c1084600160009054906101000a900473ffffffffffffffffffffffffffffffffffffffff16611855565b6000600260009054906101000a900473ffffffffffffffffffffffffffffffffffffffff1673ffffffffffffffffffffffffffffffffffffffff1663e6a4390586866040518363ffffffff1660e01b8152600401611c6f9291906131ec565b60206040518083038186803b158015611c8757600080fd5b505afa158015611c9b573d6000803e3d6000fd5b505050506040513d601f19601f82011682018060405250810190611cbf91906128c1565b9050600073ffffffffffffffffffffffffffffffffffffffff168173ffffffffffffffffffffffffffffffffffffffff1614611fc6576000600267ffffffffffffffff811115611d38577f4e487b7100000000000000000000000000000000000000000000000000000000600052604160045260246000fd5b604051908082528060200260200182016040528015611d665781602001602082028036833780820191505090505b5090508581600081518110611da4577f4e487b7100000000000000000000000000000000000000000000000000000000600052603260045260246000fd5b602002602001019073ffffffffffffffffffffffffffffffffffffffff16908173ffffffffffffffffffffffffffffffffffffffff16815250508481600181518110611e19577f4e487b7100000000000000000000000000000000000000000000000000000000600052603260045260246000fd5b602002602001019073ffffffffffffffffffffffffffffffffffffffff16908173ffffffffffffffffffffffffffffffffffffffff1681525050600160009054906101000a900473ffffffffffffffffffffffffffffffffffffffff1673ffffffffffffffffffffffffffffffffffffffff166338ed173985600184307ff0000000000000000000000000000000000000000000000000000000000000006040518663ffffffff1660e01b8152600401611ed79594939291906135f6565b600060405180830381600087803b158015611ef157600080fd5b505af1158015611f05573d6000803e3d6000fd5b505050506040513d6000823e3d601f19601f82011682018060405250810190611f2e9190612a7a565b60018251611f3c91906137bd565b81518110611f73577f4e487b7100000000000000000000000000000000000000000000000000000000600052603260045260246000fd5b6020026020010151925060008311611fc0576040517f08c379a0000000000000000000000000000000000000000000000000000000008152600401611fb79061350f565b60405180910390fd5b5061232a565b6000600367ffffffffffffffff811115612009577f4e487b7100000000000000000000000000000000000000000000000000000000600052604160045260246000fd5b6040519080825280602002602001820160405280156120375781602001602082028036833780820191505090505b5090508581600081518110612075577f4e487b7100000000000000000000000000000000000000000000000000000000600052603260045260246000fd5b602002602001019073ffffffffffffffffffffffffffffffffffffffff16908173ffffffffffffffffffffffffffffffffffffffff1681525050600460009054906101000a900473ffffffffffffffffffffffffffffffffffffffff168160018151811061210c577f4e487b7100000000000000000000000000000000000000000000000000000000600052603260045260246000fd5b602002602001019073ffffffffffffffffffffffffffffffffffffffff16908173ffffffffffffffffffffffffffffffffffffffff16815250508481600281518110612181577f4e487b7100000000000000000000000000000000000000000000000000000000600052603260045260246000fd5b602002602001019073ffffffffffffffffffffffffffffffffffffffff16908173ffffffffffffffffffffffffffffffffffffffff1681525050600160009054906101000a900473ffffffffffffffffffffffffffffffffffffffff1673ffffffffffffffffffffffffffffffffffffffff166338ed173985600184307ff0000000000000000000000000000000000000000000000000000000000000006040518663ffffffff1660e01b815260040161223f9594939291906135f6565b600060405180830381600087803b15801561225957600080fd5b505af115801561226d573d6000803e3d6000fd5b505050506040513d6000823e3d601f19601f820116820180604052508101906122969190612a7a565b600182516122a491906137bd565b815181106122db577f4e487b7100000000000000000000000000000000000000000000000000000000600052603260045260246000fd5b6020026020010151925060008311612328576040517f08c379a000000000000000000000000000000000000000000000000000000000815260040161231f906134ef565b60405180910390fd5b505b505b9392505050565b60008114806123cc575060008373ffffffffffffffffffffffffffffffffffffffff1663dd62ed3e30856040518363ffffffff1660e01b815260040161237a9291906131ec565b60206040518083038186803b15801561239257600080fd5b505afa1580156123a6573d6000803e3d6000fd5b505050506040513d601f19601f820116820180604052508101906123ca9190612b0d565b145b61240b576040517f08c379a00000000000000000000000000000000000000000000000000000000081526004016124029061356f565b60405180910390fd5b61248c8363095ea7b360e01b848460405160240161242a929190613338565b604051602081830303815290604052907bffffffffffffffffffffffffffffffffffffffffffffffffffffffff19166020820180517bffffffffffffffffffffffffffffffffffffffffffffffffffffffff838183161783525050505061193e565b505050565b60606124a084846000856124a9565b90509392505050565b6060824710156124ee576040517f08c379a00000000000000000000000000000000000000000000000000000000081526004016124e59061346f565b60405180910390fd5b6124f7856125bd565b612536576040517f08c379a000000000000000000000000000000000000000000000000000000000815260040161252d9061352f565b60405180910390fd5b6000808673ffffffffffffffffffffffffffffffffffffffff16858760405161255f91906131a5565b60006040518083038185875af1925050503d806000811461259c576040519150601f19603f3d011682016040523d82523d6000602084013e6125a1565b606091505b50915091506125b18282866125e0565b92505050949350505050565b6000808273ffffffffffffffffffffffffffffffffffffffff163b119050919050565b606083156125f057829050612640565b6000835111156126035782518084602001fd5b816040517f08c379a000000000000000000000000000000000000000000000000000000000815260040161263791906133cd565b60405180910390fd5b9392505050565b600061265a61265584613675565b613650565b9050808382526020820190508285602086028201111561267957600080fd5b60005b858110156126a9578161268f8882612883565b84526020840193506020830192505060018101905061267c565b5050509392505050565b6000813590506126c281613e18565b92915050565b6000815190506126d781613e18565b92915050565b60008083601f8401126126ef57600080fd5b8235905067ffffffffffffffff81111561270857600080fd5b60208301915083602082028301111561272057600080fd5b9250929050565b60008083601f84011261273957600080fd5b8235905067ffffffffffffffff81111561275257600080fd5b60208301915083602082028301111561276a57600080fd5b9250929050565b600082601f83011261278257600080fd5b8151612792848260208601612647565b91505092915050565b6000815190506127aa81613e2f565b92915050565b60008083601f8401126127c257600080fd5b8235905067ffffffffffffffff8111156127db57600080fd5b6020830191508360018202830111156127f357600080fd5b9250929050565b60006080828403121561280c57600080fd5b6128166080613650565b90506000612826848285016126b3565b600083015250602061283a848285016126b3565b602083015250604061284e848285016126b3565b60408301525060606128628482850161286e565b60608301525092915050565b60008135905061287d81613e46565b92915050565b60008151905061289281613e46565b92915050565b6000602082840312156128aa57600080fd5b60006128b8848285016126b3565b91505092915050565b6000602082840312156128d357600080fd5b60006128e1848285016126c8565b91505092915050565b6000806000806080858703121561290057600080fd5b600061290e878288016126b3565b945050602061291f878288016126b3565b9350506040612930878288016126b3565b92505060606129418782880161286e565b91505092959194509250565b6000806020838503121561296057600080fd5b600083013567ffffffffffffffff81111561297a57600080fd5b612986858286016126dd565b92509250509250929050565b600080600080600080600080600060a08a8c0312156129b057600080fd5b60008a013567ffffffffffffffff8111156129ca57600080fd5b6129d68c828d016126dd565b995099505060208a013567ffffffffffffffff8111156129f557600080fd5b612a018c828d01612727565b975097505060408a013567ffffffffffffffff811115612a2057600080fd5b612a2c8c828d01612727565b95509550506060612a3f8c828d016126b3565b93505060808a013567ffffffffffffffff811115612a5c57600080fd5b612a688c828d016127b0565b92509250509295985092959850929598565b600060208284031215612a8c57600080fd5b600082015167ffffffffffffffff811115612aa657600080fd5b612ab284828501612771565b91505092915050565b600060208284031215612acd57600080fd5b6000612adb8482850161279b565b91505092915050565b600060808284031215612af657600080fd5b6000612b04848285016127fa565b91505092915050565b600060208284031215612b1f57600080fd5b6000612b2d84828501612883565b91505092915050565b60008060008060008060c08789031215612b4f57600080fd5b6000612b5d89828a01612883565b9650506020612b6e89828a01612883565b9550506040612b7f89828a01612883565b9450506060612b9089828a01612883565b9350506080612ba189828a01612883565b92505060a0612bb289828a01612883565b9150509295509295509295565b6000612bcb8383612c0d565b60208301905092915050565b6000612be38383613187565b60208301905092915050565b612bf881613850565b82525050565b612c0781613850565b82525050565b612c168161383e565b82525050565b612c258161383e565b82525050565b6000612c36826136c1565b612c408185613707565b9350612c4b836136a1565b8060005b83811015612c7c578151612c638882612bbf565b9750612c6e836136ed565b925050600181019050612c4f565b5085935050505092915050565b6000612c94826136cc565b612c9e8185613718565b9350612ca9836136b1565b8060005b83811015612cda578151612cc18882612bd7565b9750612ccc836136fa565b925050600181019050612cad565b5085935050505092915050565b612cf081613862565b82525050565b612cff81613862565b82525050565b612d0e8161386e565b82525050565b6000612d1f826136d7565b612d298185613729565b9350612d3981856020860161392f565b612d4281613ab7565b840191505092915050565b6000612d58826136d7565b612d62818561373a565b9350612d7281856020860161392f565b612d7b81613ab7565b840191505092915050565b6000612d91826136d7565b612d9b818561374b565b9350612dab81856020860161392f565b80840191505092915050565b612dc0816138c3565b82525050565b612dcf816138e7565b82525050565b612dde8161390b565b82525050565b612ded8161390b565b82525050565b612dfc8161391d565b82525050565b6000612e0d826136e2565b612e178185613756565b9350612e2781856020860161392f565b612e3081613ab7565b840191505092915050565b6000612e48601083613756565b9150612e5382613ae2565b602082019050919050565b6000612e6b602683613756565b9150612e7682613b0b565b604082019050919050565b6000612e8e603a83613756565b9150612e9982613b5a565b604082019050919050565b6000612eb1601d83613756565b9150612ebc82613ba9565b602082019050919050565b6000612ed4602683613756565b9150612edf82613bd2565b604082019050919050565b6000612ef7602b83613756565b9150612f0282613c21565b604082019050919050565b6000612f1a602083613756565b9150612f2582613c70565b602082019050919050565b6000612f3d602483613756565b9150612f4882613c99565b604082019050919050565b6000612f60601783613756565b9150612f6b82613ce8565b602082019050919050565b6000612f83601783613756565b9150612f8e82613d11565b602082019050919050565b6000612fa660008361374b565b9150612fb182613d3a565b600082019050919050565b6000612fc9601d83613756565b9150612fd482613d3d565b602082019050919050565b6000612fec602a83613756565b9150612ff782613d66565b604082019050919050565b600061300f603683613756565b915061301a82613db5565b604082019050919050565b60808201600080830154905061303a81613962565b6130476000860182612c0d565b5061305181613996565b61305e6020860182612ce7565b506001830154905061306f8161397c565b61307c6040860182612bef565b5061308681613996565b6130936060860182612ce7565b5050505050565b6080820160008201516130b06000850182612c0d565b5060208201516130c36020850182612c0d565b5060408201516130d66040850182612c0d565b5060608201516130e96060850182613187565b50505050565b600060c0830160008301516131076000860182612d05565b50602083015161311a6020860182612dd5565b50604083015161312d6040860182612c0d565b5060608301516131406060860182612c0d565b5060808301516131536080860182613187565b5060a083015184820360a086015261316b8282612d14565b9150508091505092915050565b6131818161388b565b82525050565b613190816138b9565b82525050565b61319f816138b9565b82525050565b60006131b18284612d86565b915081905092915050565b60006131c782612f99565b9150819050919050565b60006020820190506131e66000830184612c1c565b92915050565b60006040820190506132016000830185612c1c565b61320e6020830184612c1c565b9392505050565b600060a08201905061322a6000830188612c1c565b6132376020830187612c1c565b6132446040830186612c1c565b6132516060830185613196565b61325e6080830184612cf6565b9695505050505050565b600060e08201905061327d600083018a612c1c565b818103602083015261328f8189612c2b565b905081810360408301526132a38188612c89565b905081810360608301526132b78187612c89565b90506132c66080830186612c1c565b81810360a08301526132d88185612d4d565b90506132e760c0830184613178565b98975050505050505050565b60006080820190506133086000830187612c1c565b6133156020830186612cf6565b6133226040830185612bfe565b61332f6060830184612cf6565b95945050505050565b600060408201905061334d6000830185612c1c565b61335a6020830184613196565b9392505050565b60006020820190506133766000830184612cf6565b92915050565b60006020820190506133916000830184612db7565b92915050565b60006020820190506133ac6000830184612dc6565b92915050565b60006020820190506133c76000830184612de4565b92915050565b600060208201905081810360008301526133e78184612e02565b905092915050565b6000602082019050818103600083015261340881612e3b565b9050919050565b6000602082019050818103600083015261342881612e5e565b9050919050565b6000602082019050818103600083015261344881612e81565b9050919050565b6000602082019050818103600083015261346881612ea4565b9050919050565b6000602082019050818103600083015261348881612ec7565b9050919050565b600060208201905081810360008301526134a881612eea565b9050919050565b600060208201905081810360008301526134c881612f0d565b9050919050565b600060208201905081810360008301526134e881612f30565b9050919050565b6000602082019050818103600083015261350881612f53565b9050919050565b6000602082019050818103600083015261352881612f76565b9050919050565b6000602082019050818103600083015261354881612fbc565b9050919050565b6000602082019050818103600083015261356881612fdf565b9050919050565b6000602082019050818103600083015261358881613002565b9050919050565b60006080820190506135a4600083018461309a565b92915050565b600060e08201905081810360008301526135c481876130ef565b90506135d36020830186613025565b6135e060a0830185612df3565b6135ed60c0830184613196565b95945050505050565b600060a08201905061360b6000830188613196565b6136186020830187612df3565b818103604083015261362a8186612c2b565b90506136396060830185612c1c565b6136466080830184613196565b9695505050505050565b600061365a61366b565b905061366682826139b0565b919050565b6000604051905090565b600067ffffffffffffffff8211156136905761368f613a88565b5b602082029050602081019050919050565b6000819050602082019050919050565b6000819050602082019050919050565b600081519050919050565b600081519050919050565b600081519050919050565b600081519050919050565b6000602082019050919050565b6000602082019050919050565b600082825260208201905092915050565b600082825260208201905092915050565b600082825260208201905092915050565b600082825260208201905092915050565b600081905092915050565b600082825260208201905092915050565b6000613772826138b9565b915061377d836138b9565b9250827fffffffffffffffffffffffffffffffffffffffffffffffffffffffffffffffff038211156137b2576137b1613a2a565b5b828201905092915050565b60006137c8826138b9565b91506137d3836138b9565b9250828210156137e6576137e5613a2a565b5b828203905092915050565b600073ffffffffffffffffffffffffffffffffffffffff82169050919050565b600073ffffffffffffffffffffffffffffffffffffffff82169050919050565b600060ff82169050919050565b600061384982613899565b9050919050565b600061385b82613899565b9050919050565b60008115159050919050565b6000819050919050565b600081905061388682613e04565b919050565b600061ffff82169050919050565b600073ffffffffffffffffffffffffffffffffffffffff82169050919050565b6000819050919050565b60006138ce826138d5565b9050919050565b60006138e082613899565b9050919050565b60006138f2826138f9565b9050919050565b600061390482613899565b9050919050565b600061391682613878565b9050919050565b6000613928826138b9565b9050919050565b60005b8381101561394d578082015181840152602081019050613932565b8381111561395c576000848401525b50505050565b600061397561397083613ac8565b6137f1565b9050919050565b600061398f61398a83613ac8565b613811565b9050919050565b60006139a96139a483613ad5565b613831565b9050919050565b6139b982613ab7565b810181811067ffffffffffffffff821117156139d8576139d7613a88565b5b80604052505050565b60006139ec826138b9565b91507fffffffffffffffffffffffffffffffffffffffffffffffffffffffffffffffff821415613a1f57613a1e613a2a565b5b600182019050919050565b7f4e487b7100000000000000000000000000000000000000000000000000000000600052601160045260246000fd5b7f4e487b7100000000000000000000000000000000000000000000000000000000600052602160045260246000fd5b7f4e487b7100000000000000000000000000000000000000000000000000000000600052604160045260246000fd5b6000601f19601f8301169050919050565b60008160001c9050919050565b60008160a01c9050919050565b7f7573657220776173206865616c74687900000000000000000000000000000000600082015250565b7f4f776e61626c653a206e6577206f776e657220697320746865207a65726f206160008201527f6464726573730000000000000000000000000000000000000000000000000000602082015250565b7f416464726573733a20756e61626c6520746f2073656e642076616c75652c207260008201527f6563697069656e74206d61792068617665207265766572746564000000000000602082015250565b7f416464726573733a20696e73756666696369656e742062616c616e6365000000600082015250565b7f416464726573733a20696e73756666696369656e742062616c616e636520666f60008201527f722063616c6c0000000000000000000000000000000000000000000000000000602082015250565b7f6469646e742774207265636569766520656e6f756768206465627420746f6b6560008201527f6e7320746f207265706179000000000000000000000000000000000000000000602082015250565b7f4f776e61626c653a2063616c6c6572206973206e6f7420746865206f776e6572600082015250565b7f6e6f20636f72726563742062616c616e636572207061746820696d706c656d6560008201527f6e74656400000000000000000000000000000000000000000000000000000000602082015250565b7f4572726f72205377617070696e6720546f6b656e732033000000000000000000600082015250565b7f4572726f72205377617070696e6720546f6b656e732032000000000000000000600082015250565b50565b7f416464726573733a2063616c6c20746f206e6f6e2d636f6e7472616374000000600082015250565b7f5361666545524332303a204552433230206f7065726174696f6e20646964206e60008201527f6f74207375636365656400000000000000000000000000000000000000000000602082015250565b7f5361666545524332303a20617070726f76652066726f6d206e6f6e2d7a65726f60008201527f20746f206e6f6e2d7a65726f20616c6c6f77616e636500000000000000000000602082015250565b60028110613e1557613e14613a59565b5b50565b613e218161383e565b8114613e2c57600080fd5b50565b613e3881613862565b8114613e4357600080fd5b50565b613e4f816138b9565b8114613e5a57600080fd5b5056fea2646970667358221220dd4de442c599cc4b11de84b79fdf4a7353534b83ba4fac83c2648de1fb2f9b9064736f6c63430008040033",
  "linkReferences": {},
  "deployedLinkReferences": {}
}