{
  "_format": "hh-sol-artifact-1",
  "contractName": "AaveLiquidator",
  "sourceName": "contracts/AaveLiquidator.sol",
  "abi": [
    {
      "inputs": [
        {
          "internalType": "contract ILendingPoolAddressesProvider",
          "name": "_addressProvider",
          "type": "address"
        }
      ],
      "stateMutability": "nonpayable",
      "type": "constructor"
    },
    {
      "inputs": [],
      "name": "ADDRESSES_PROVIDER",
      "outputs": [
        {
          "internalType": "contract ILendingPoolAddressesProvider",
          "name": "",
          "type": "address"
        }
      ],
      "stateMutability": "view",
      "type": "function"
    },
    {
      "inputs": [],
      "name": "LENDING_POOL",
      "outputs": [
        {
          "internalType": "contract ILendingPool",
          "name": "",
          "type": "address"
        }
      ],
      "stateMutability": "view",
      "type": "function"
    },
    {
      "inputs": [
        {
          "internalType": "address[]",
          "name": "assets",
          "type": "address[]"
        },
        {
          "internalType": "uint256[]",
          "name": "amounts",
          "type": "uint256[]"
        },
        {
          "internalType": "uint256[]",
          "name": "premiums",
          "type": "uint256[]"
        },
        {
          "internalType": "address",
          "name": "initiator",
          "type": "address"
        },
        {
          "internalType": "bytes",
          "name": "params",
          "type": "bytes"
        }
      ],
      "name": "executeOperation",
      "outputs": [
        {
          "internalType": "bool",
          "name": "",
          "type": "bool"
        }
      ],
      "stateMutability": "nonpayable",
      "type": "function"
    },
    {
      "inputs": [
        {
          "internalType": "address",
          "name": "_debt",
          "type": "address"
        },
        {
          "internalType": "address",
          "name": "_collateral",
          "type": "address"
        },
        {
          "internalType": "address",
          "name": "_user",
          "type": "address"
        },
        {
          "internalType": "uint256",
          "name": "_debtToPay",
          "type": "uint256"
        }
      ],
      "name": "performLiquidation",
      "outputs": [],
      "stateMutability": "nonpayable",
      "type": "function"
    },
    {
      "inputs": [
        {
          "internalType": "address",
          "name": "_user",
          "type": "address"
        }
      ],
      "name": "unhealthyUser",
      "outputs": [
        {
          "internalType": "bool",
          "name": "",
          "type": "bool"
        }
      ],
      "stateMutability": "view",
      "type": "function"
    },
    {
      "inputs": [],
      "name": "uniswapFactoryAddress",
      "outputs": [
        {
          "internalType": "address",
          "name": "",
          "type": "address"
        }
      ],
      "stateMutability": "view",
      "type": "function"
    },
    {
      "inputs": [],
      "name": "uniswapRouter02Address",
      "outputs": [
        {
          "internalType": "address",
          "name": "",
          "type": "address"
        }
      ],
      "stateMutability": "view",
      "type": "function"
    },
    {
      "inputs": [],
      "name": "weth",
      "outputs": [
        {
          "internalType": "address",
          "name": "",
          "type": "address"
        }
      ],
      "stateMutability": "view",
      "type": "function"
    }
  ],
  "bytecode": "0x60c060405273a5e0829caced8ffdd4de3c43696c57f7d7a678ff6000806101000a81548173ffffffffffffffffffffffffffffffffffffffff021916908373ffffffffffffffffffffffffffffffffffffffff160217905550735757371414417b8c6caad45baef941abc7d3ab32600160006101000a81548173ffffffffffffffffffffffffffffffffffffffff021916908373ffffffffffffffffffffffffffffffffffffffff160217905550737ceb23fd6bc0add59e62ac25578270cff1b9f619600260006101000a81548173ffffffffffffffffffffffffffffffffffffffff021916908373ffffffffffffffffffffffffffffffffffffffff1602179055503480156200010f57600080fd5b50604051620028db380380620028db833981810160405281019062000135919062000285565b8073ffffffffffffffffffffffffffffffffffffffff1660808173ffffffffffffffffffffffffffffffffffffffff1660601b815250508073ffffffffffffffffffffffffffffffffffffffff16630261bf8b6040518163ffffffff1660e01b815260040160206040518083038186803b158015620001b357600080fd5b505afa158015620001c8573d6000803e3d6000fd5b505050506040513d601f19601f82011682018060405250810190620001ee919062000259565b73ffffffffffffffffffffffffffffffffffffffff1660a08173ffffffffffffffffffffffffffffffffffffffff1660601b81525050506200032d565b6000815190506200023c81620002f9565b92915050565b600081519050620002538162000313565b92915050565b6000602082840312156200026c57600080fd5b60006200027c848285016200022b565b91505092915050565b6000602082840312156200029857600080fd5b6000620002a88482850162000242565b91505092915050565b6000620002be82620002d9565b9050919050565b6000620002d282620002b1565b9050919050565b600073ffffffffffffffffffffffffffffffffffffffff82169050919050565b6200030481620002b1565b81146200031057600080fd5b50565b6200031e81620002c5565b81146200032a57600080fd5b50565b60805160601c60a05160601c61255f6200037c600039600081816101d0015281816106230152818161098d015281816109ec01528181610a140152610a3a015260006101a1015261255f6000f3fe608060405234801561001057600080fd5b50600436106100885760003560e01c80634e21c3281161005b5780634e21c32814610117578063920f5c8414610133578063b4625e2f14610163578063b4dcfc771461018157610088565b80630542975c1461008d5780631d340cb5146100ab5780633655ac3c146100db5780633fc8cef3146100f9575b600080fd5b61009561019f565b6040516100a29190611e24565b60405180910390f35b6100c560048036038101906100c09190611642565b6101c3565b6040516100d29190611e09565b60405180910390f35b6100e361029b565b6040516100f09190611cbe565b60405180910390f35b6101016102c1565b60405161010e9190611cbe565b60405180910390f35b610131600480360381019061012c9190611694565b6102e7565b005b61014d600480360381019061014891906116f7565b6106c5565b60405161015a9190611e09565b60405180910390f35b61016b6109c6565b6040516101789190611cbe565b60405180910390f35b6101896109ea565b6040516101969190611e3f565b60405180910390f35b7f000000000000000000000000000000000000000000000000000000000000000081565b60008060008060008060007f000000000000000000000000000000000000000000000000000000000000000073ffffffffffffffffffffffffffffffffffffffff1663bf92857c896040518263ffffffff1660e01b81526004016102279190611cbe565b60c06040518083038186803b15801561023f57600080fd5b505afa158015610253573d6000803e3d6000fd5b505050506040513d601f19601f82011682018060405250810190610277919061189b565b955095509550955095509550670de0b6b3a764000081109650505050505050919050565b600160009054906101000a900473ffffffffffffffffffffffffffffffffffffffff1681565b600260009054906101000a900473ffffffffffffffffffffffffffffffffffffffff1681565b6102f0826101c3565b61032f576040517f08c379a000000000000000000000000000000000000000000000000000000000815260040161032690611e7c565b60405180910390fd5b60003090506000600167ffffffffffffffff811115610377577f4e487b7100000000000000000000000000000000000000000000000000000000600052604160045260246000fd5b6040519080825280602002602001820160405280156103a55781602001602082028036833780820191505090505b50905085816000815181106103e3577f4e487b7100000000000000000000000000000000000000000000000000000000600052603260045260246000fd5b602002602001019073ffffffffffffffffffffffffffffffffffffffff16908173ffffffffffffffffffffffffffffffffffffffff16815250506000600167ffffffffffffffff811115610460577f4e487b7100000000000000000000000000000000000000000000000000000000600052604160045260246000fd5b60405190808252806020026020018201604052801561048e5781602001602082028036833780820191505090505b50905083816000815181106104cc577f4e487b7100000000000000000000000000000000000000000000000000000000600052603260045260246000fd5b6020026020010181815250506000600167ffffffffffffffff81111561051b577f4e487b7100000000000000000000000000000000000000000000000000000000600052604160045260246000fd5b6040519080825280602002602001820160405280156105495781602001602082028036833780820191505090505b509050600081600081518110610588577f4e487b7100000000000000000000000000000000000000000000000000000000600052603260045260246000fd5b6020026020010181815250506000309050600060405180608001604052808a73ffffffffffffffffffffffffffffffffffffffff1681526020018b73ffffffffffffffffffffffffffffffffffffffff1681526020018973ffffffffffffffffffffffffffffffffffffffff1681526020018881525060405160200161060e9190611f7c565b604051602081830303815290604052905060007f000000000000000000000000000000000000000000000000000000000000000073ffffffffffffffffffffffffffffffffffffffff1663ab9c4b5d888888888888886040518863ffffffff1660e01b81526004016106869796959493929190611d55565b600060405180830381600087803b1580156106a057600080fd5b505af11580156106b4573d6000803e3d6000fd5b505050505050505050505050505050565b60008083838101906106d79190611849565b90506107318160000151826020015183604001518c8c6000818110610725577f4e487b7100000000000000000000000000000000000000000000000000000000600052603260045260246000fd5b90506020020135610a0e565b6000816000015173ffffffffffffffffffffffffffffffffffffffff166370a08231306040518263ffffffff1660e01b81526004016107709190611cbe565b60206040518083038186803b15801561078857600080fd5b505afa15801561079c573d6000803e3d6000fd5b505050506040513d601f19601f820116820180604052508101906107c09190611872565b90506107d58260000151836020015183610ad1565b506000826020015173ffffffffffffffffffffffffffffffffffffffff166370a08231306040518263ffffffff1660e01b81526004016108159190611cbe565b60206040518083038186803b15801561082d57600080fd5b505afa158015610841573d6000803e3d6000fd5b505050506040513d601f19601f820116820180604052508101906108659190611872565b90506000898960008181106108a3577f4e487b7100000000000000000000000000000000000000000000000000000000600052603260045260246000fd5b905060200201358c8c60008181106108e4577f4e487b7100000000000000000000000000000000000000000000000000000000600052603260045260246000fd5b905060200201356108f591906120f7565b9050818111610939576040517f08c379a000000000000000000000000000000000000000000000000000000000815260040161093090611ebc565b60405180910390fd5b6109b18e8e6000818110610976577f4e487b7100000000000000000000000000000000000000000000000000000000600052603260045260246000fd5b905060200201602081019061098b9190611642565b7f0000000000000000000000000000000000000000000000000000000000000000610f2d565b60019450505050509998505050505050505050565b60008054906101000a900473ffffffffffffffffffffffffffffffffffffffff1681565b7f000000000000000000000000000000000000000000000000000000000000000081565b610a38837f0000000000000000000000000000000000000000000000000000000000000000610f2d565b7f000000000000000000000000000000000000000000000000000000000000000073ffffffffffffffffffffffffffffffffffffffff1662a718a98585858560006040518663ffffffff1660e01b8152600401610a99959493929190611d02565b600060405180830381600087803b158015610ab357600080fd5b505af1158015610ac7573d6000803e3d6000fd5b5050505050505050565b60008273ffffffffffffffffffffffffffffffffffffffff168473ffffffffffffffffffffffffffffffffffffffff161415610b0f57819050610f26565b610b398460008054906101000a900473ffffffffffffffffffffffffffffffffffffffff16610f2d565b6000600160009054906101000a900473ffffffffffffffffffffffffffffffffffffffff1673ffffffffffffffffffffffffffffffffffffffff1663e6a4390586866040518363ffffffff1660e01b8152600401610b98929190611cd9565b60206040518083038186803b158015610bb057600080fd5b505afa158015610bc4573d6000803e3d6000fd5b505050506040513d601f19601f82011682018060405250810190610be8919061166b565b9050600073ffffffffffffffffffffffffffffffffffffffff168173ffffffffffffffffffffffffffffffffffffffff161415610c5a576040517f08c379a0000000000000000000000000000000000000000000000000000000008152600401610c5190611f1c565b60405180910390fd5b6000600267ffffffffffffffff811115610c9d577f4e487b7100000000000000000000000000000000000000000000000000000000600052604160045260246000fd5b604051908082528060200260200182016040528015610ccb5781602001602082028036833780820191505090505b5090508581600081518110610d09577f4e487b7100000000000000000000000000000000000000000000000000000000600052603260045260246000fd5b602002602001019073ffffffffffffffffffffffffffffffffffffffff16908173ffffffffffffffffffffffffffffffffffffffff16815250508481600181518110610d7e577f4e487b7100000000000000000000000000000000000000000000000000000000600052603260045260246000fd5b602002602001019073ffffffffffffffffffffffffffffffffffffffff16908173ffffffffffffffffffffffffffffffffffffffff168152505060008054906101000a900473ffffffffffffffffffffffffffffffffffffffff1673ffffffffffffffffffffffffffffffffffffffff166338ed173985600184307ff0000000000000000000000000000000000000000000000000000000000000006040518663ffffffff1660e01b8152600401610e3a959493929190611f97565b600060405180830381600087803b158015610e5457600080fd5b505af1158015610e68573d6000803e3d6000fd5b505050506040513d6000823e3d601f19601f82011682018060405250810190610e9191906117df565b60018251610e9f919061214d565b81518110610ed6577f4e487b7100000000000000000000000000000000000000000000000000000000600052603260045260246000fd5b6020026020010151925060008311610f23576040517f08c379a0000000000000000000000000000000000000000000000000000000008152600401610f1a90611edc565b60405180910390fd5b50505b9392505050565b600082905060008173ffffffffffffffffffffffffffffffffffffffff1663dd62ed3e30856040518363ffffffff1660e01b8152600401610f6f929190611cd9565b60206040518083038186803b158015610f8757600080fd5b505afa158015610f9b573d6000803e3d6000fd5b505050506040513d601f19601f82011682018060405250810190610fbf9190611872565b141561101157611010827fffffffffffffffffffffffffffffffffffffffffffffffffffffffffffffffff8373ffffffffffffffffffffffffffffffffffffffff166110169092919063ffffffff16565b5b505050565b60008114806110af575060008373ffffffffffffffffffffffffffffffffffffffff1663dd62ed3e30856040518363ffffffff1660e01b815260040161105d929190611cd9565b60206040518083038186803b15801561107557600080fd5b505afa158015611089573d6000803e3d6000fd5b505050506040513d601f19601f820116820180604052508101906110ad9190611872565b145b6110ee576040517f08c379a00000000000000000000000000000000000000000000000000000000081526004016110e590611f5c565b60405180910390fd5b61116f8363095ea7b360e01b848460405160240161110d929190611de0565b604051602081830303815290604052907bffffffffffffffffffffffffffffffffffffffffffffffffffffffff19166020820180517bffffffffffffffffffffffffffffffffffffffffffffffffffffffff8381831617835250505050611174565b505050565b60006111d6826040518060400160405280602081526020017f5361666545524332303a206c6f772d6c6576656c2063616c6c206661696c65648152508573ffffffffffffffffffffffffffffffffffffffff1661123b9092919063ffffffff16565b905060008151111561123657808060200190518101906111f69190611820565b611235576040517f08c379a000000000000000000000000000000000000000000000000000000000815260040161122c90611f3c565b60405180910390fd5b5b505050565b606061124a8484600085611253565b90509392505050565b606082471015611298576040517f08c379a000000000000000000000000000000000000000000000000000000000815260040161128f90611e9c565b60405180910390fd5b6112a185611367565b6112e0576040517f08c379a00000000000000000000000000000000000000000000000000000000081526004016112d790611efc565b60405180910390fd5b6000808673ffffffffffffffffffffffffffffffffffffffff1685876040516113099190611ca7565b60006040518083038185875af1925050503d8060008114611346576040519150601f19603f3d011682016040523d82523d6000602084013e61134b565b606091505b509150915061135b82828661138a565b92505050949350505050565b6000808273ffffffffffffffffffffffffffffffffffffffff163b119050919050565b6060831561139a578290506113ea565b6000835111156113ad5782518084602001fd5b816040517f08c379a00000000000000000000000000000000000000000000000000000000081526004016113e19190611e5a565b60405180910390fd5b9392505050565b60006114046113ff84612016565b611ff1565b9050808382526020820190508285602086028201111561142357600080fd5b60005b858110156114535781611439888261162d565b845260208401935060208301925050600181019050611426565b5050509392505050565b60008135905061146c816124e4565b92915050565b600081519050611481816124e4565b92915050565b60008083601f84011261149957600080fd5b8235905067ffffffffffffffff8111156114b257600080fd5b6020830191508360208202830111156114ca57600080fd5b9250929050565b60008083601f8401126114e357600080fd5b8235905067ffffffffffffffff8111156114fc57600080fd5b60208301915083602082028301111561151457600080fd5b9250929050565b600082601f83011261152c57600080fd5b815161153c8482602086016113f1565b91505092915050565b600081519050611554816124fb565b92915050565b60008083601f84011261156c57600080fd5b8235905067ffffffffffffffff81111561158557600080fd5b60208301915083600182028301111561159d57600080fd5b9250929050565b6000608082840312156115b657600080fd5b6115c06080611ff1565b905060006115d08482850161145d565b60008301525060206115e48482850161145d565b60208301525060406115f88482850161145d565b604083015250606061160c84828501611618565b60608301525092915050565b60008135905061162781612512565b92915050565b60008151905061163c81612512565b92915050565b60006020828403121561165457600080fd5b60006116628482850161145d565b91505092915050565b60006020828403121561167d57600080fd5b600061168b84828501611472565b91505092915050565b600080600080608085870312156116aa57600080fd5b60006116b88782880161145d565b94505060206116c98782880161145d565b93505060406116da8782880161145d565b92505060606116eb87828801611618565b91505092959194509250565b600080600080600080600080600060a08a8c03121561171557600080fd5b60008a013567ffffffffffffffff81111561172f57600080fd5b61173b8c828d01611487565b995099505060208a013567ffffffffffffffff81111561175a57600080fd5b6117668c828d016114d1565b975097505060408a013567ffffffffffffffff81111561178557600080fd5b6117918c828d016114d1565b955095505060606117a48c828d0161145d565b93505060808a013567ffffffffffffffff8111156117c157600080fd5b6117cd8c828d0161155a565b92509250509295985092959850929598565b6000602082840312156117f157600080fd5b600082015167ffffffffffffffff81111561180b57600080fd5b6118178482850161151b565b91505092915050565b60006020828403121561183257600080fd5b600061184084828501611545565b91505092915050565b60006080828403121561185b57600080fd5b6000611869848285016115a4565b91505092915050565b60006020828403121561188457600080fd5b60006118928482850161162d565b91505092915050565b60008060008060008060c087890312156118b457600080fd5b60006118c289828a0161162d565b96505060206118d389828a0161162d565b95505060406118e489828a0161162d565b94505060606118f589828a0161162d565b935050608061190689828a0161162d565b92505060a061191789828a0161162d565b9150509295509295509295565b60006119308383611954565b60208301905092915050565b60006119488383611c89565b60208301905092915050565b61195d81612181565b82525050565b61196c81612181565b82525050565b600061197d82612062565b61198781856120a8565b935061199283612042565b8060005b838110156119c35781516119aa8882611924565b97506119b58361208e565b925050600181019050611996565b5085935050505092915050565b60006119db8261206d565b6119e581856120b9565b93506119f083612052565b8060005b83811015611a21578151611a08888261193c565b9750611a138361209b565b9250506001810190506119f4565b5085935050505092915050565b611a3781612193565b82525050565b6000611a4882612078565b611a5281856120ca565b9350611a62818560208601612231565b611a6b816122f3565b840191505092915050565b6000611a8182612078565b611a8b81856120db565b9350611a9b818560208601612231565b80840191505092915050565b611ab0816121d7565b82525050565b611abf816121fb565b82525050565b611ace8161221f565b82525050565b6000611adf82612083565b611ae981856120e6565b9350611af9818560208601612231565b611b02816122f3565b840191505092915050565b6000611b1a6010836120e6565b9150611b2582612304565b602082019050919050565b6000611b3d6026836120e6565b9150611b488261232d565b604082019050919050565b6000611b60602b836120e6565b9150611b6b8261237c565b604082019050919050565b6000611b836017836120e6565b9150611b8e826123cb565b602082019050919050565b6000611ba6601d836120e6565b9150611bb1826123f4565b602082019050919050565b6000611bc96011836120e6565b9150611bd48261241d565b602082019050919050565b6000611bec602a836120e6565b9150611bf782612446565b604082019050919050565b6000611c0f6036836120e6565b9150611c1a82612495565b604082019050919050565b608082016000820151611c3b6000850182611954565b506020820151611c4e6020850182611954565b506040820151611c616040850182611954565b506060820151611c746060850182611c89565b50505050565b611c838161219f565b82525050565b611c92816121cd565b82525050565b611ca1816121cd565b82525050565b6000611cb38284611a76565b915081905092915050565b6000602082019050611cd36000830184611963565b92915050565b6000604082019050611cee6000830185611963565b611cfb6020830184611963565b9392505050565b600060a082019050611d176000830188611963565b611d246020830187611963565b611d316040830186611963565b611d3e6060830185611c98565b611d4b6080830184611a2e565b9695505050505050565b600060e082019050611d6a600083018a611963565b8181036020830152611d7c8189611972565b90508181036040830152611d9081886119d0565b90508181036060830152611da481876119d0565b9050611db36080830186611963565b81810360a0830152611dc58185611a3d565b9050611dd460c0830184611c7a565b98975050505050505050565b6000604082019050611df56000830185611963565b611e026020830184611c98565b9392505050565b6000602082019050611e1e6000830184611a2e565b92915050565b6000602082019050611e396000830184611aa7565b92915050565b6000602082019050611e546000830184611ab6565b92915050565b60006020820190508181036000830152611e748184611ad4565b905092915050565b60006020820190508181036000830152611e9581611b0d565b9050919050565b60006020820190508181036000830152611eb581611b30565b9050919050565b60006020820190508181036000830152611ed581611b53565b9050919050565b60006020820190508181036000830152611ef581611b76565b9050919050565b60006020820190508181036000830152611f1581611b99565b9050919050565b60006020820190508181036000830152611f3581611bbc565b9050919050565b60006020820190508181036000830152611f5581611bdf565b9050919050565b60006020820190508181036000830152611f7581611c02565b9050919050565b6000608082019050611f916000830184611c25565b92915050565b600060a082019050611fac6000830188611c98565b611fb96020830187611ac5565b8181036040830152611fcb8186611972565b9050611fda6060830185611963565b611fe76080830184611c98565b9695505050505050565b6000611ffb61200c565b90506120078282612264565b919050565b6000604051905090565b600067ffffffffffffffff821115612031576120306122c4565b5b602082029050602081019050919050565b6000819050602082019050919050565b6000819050602082019050919050565b600081519050919050565b600081519050919050565b600081519050919050565b600081519050919050565b6000602082019050919050565b6000602082019050919050565b600082825260208201905092915050565b600082825260208201905092915050565b600082825260208201905092915050565b600081905092915050565b600082825260208201905092915050565b6000612102826121cd565b915061210d836121cd565b9250827fffffffffffffffffffffffffffffffffffffffffffffffffffffffffffffffff0382111561214257612141612295565b5b828201905092915050565b6000612158826121cd565b9150612163836121cd565b92508282101561217657612175612295565b5b828203905092915050565b600061218c826121ad565b9050919050565b60008115159050919050565b600061ffff82169050919050565b600073ffffffffffffffffffffffffffffffffffffffff82169050919050565b6000819050919050565b60006121e2826121e9565b9050919050565b60006121f4826121ad565b9050919050565b60006122068261220d565b9050919050565b6000612218826121ad565b9050919050565b600061222a826121cd565b9050919050565b60005b8381101561224f578082015181840152602081019050612234565b8381111561225e576000848401525b50505050565b61226d826122f3565b810181811067ffffffffffffffff8211171561228c5761228b6122c4565b5b80604052505050565b7f4e487b7100000000000000000000000000000000000000000000000000000000600052601160045260246000fd5b7f4e487b7100000000000000000000000000000000000000000000000000000000600052604160045260246000fd5b6000601f19601f8301169050919050565b7f7573657220776173206865616c74687900000000000000000000000000000000600082015250565b7f416464726573733a20696e73756666696369656e742062616c616e636520666f60008201527f722063616c6c0000000000000000000000000000000000000000000000000000602082015250565b7f6469646e742774207265636569766520656e6f756768206465627420746f6b6560008201527f6e7320746f207265706179000000000000000000000000000000000000000000602082015250565b7f4572726f72205377617070696e6720546f6b656e732032000000000000000000600082015250565b7f416464726573733a2063616c6c20746f206e6f6e2d636f6e7472616374000000600082015250565b7f4e6f205377617020417661696c61626c65000000000000000000000000000000600082015250565b7f5361666545524332303a204552433230206f7065726174696f6e20646964206e60008201527f6f74207375636365656400000000000000000000000000000000000000000000602082015250565b7f5361666545524332303a20617070726f76652066726f6d206e6f6e2d7a65726f60008201527f20746f206e6f6e2d7a65726f20616c6c6f77616e636500000000000000000000602082015250565b6124ed81612181565b81146124f857600080fd5b50565b61250481612193565b811461250f57600080fd5b50565b61251b816121cd565b811461252657600080fd5b5056fea2646970667358221220f379bd5448bfd761dc37610400ca9e1b0d22a775542762c3d991a407d01e5f8564736f6c63430008040033",
  "linkReferences": {},
  "deployedLinkReferences": {}
}