{
  "_format": "hh-sol-artifact-1",
  "contractName": "AaveLiquidator",
  "sourceName": "contracts/AaveLiquidator.sol",
  "abi": [
    {
      "inputs": [
        {
          "internalType": "contract ILendingPoolAddressesProvider",
          "name": "_addressProvider",
          "type": "address"
        }
      ],
      "stateMutability": "nonpayable",
      "type": "constructor"
    },
    {
      "anonymous": false,
      "inputs": [
        {
          "indexed": true,
          "internalType": "address",
          "name": "previousOwner",
          "type": "address"
        },
        {
          "indexed": true,
          "internalType": "address",
          "name": "newOwner",
          "type": "address"
        }
      ],
      "name": "OwnershipTransferred",
      "type": "event"
    },
    {
      "inputs": [],
      "name": "ADDRESSES_PROVIDER",
      "outputs": [
        {
          "internalType": "contract ILendingPoolAddressesProvider",
          "name": "",
          "type": "address"
        }
      ],
      "stateMutability": "view",
      "type": "function"
    },
    {
      "inputs": [],
      "name": "LENDING_POOL",
      "outputs": [
        {
          "internalType": "contract ILendingPool",
          "name": "",
          "type": "address"
        }
      ],
      "stateMutability": "view",
      "type": "function"
    },
    {
      "inputs": [],
      "name": "bal",
      "outputs": [
        {
          "internalType": "address",
          "name": "",
          "type": "address"
        }
      ],
      "stateMutability": "view",
      "type": "function"
    },
    {
      "inputs": [],
      "name": "balancerVault",
      "outputs": [
        {
          "internalType": "address",
          "name": "",
          "type": "address"
        }
      ],
      "stateMutability": "view",
      "type": "function"
    },
    {
      "inputs": [
        {
          "internalType": "address[]",
          "name": "assets",
          "type": "address[]"
        },
        {
          "internalType": "uint256[]",
          "name": "amounts",
          "type": "uint256[]"
        },
        {
          "internalType": "uint256[]",
          "name": "premiums",
          "type": "uint256[]"
        },
        {
          "internalType": "address",
          "name": "initiator",
          "type": "address"
        },
        {
          "internalType": "bytes",
          "name": "params",
          "type": "bytes"
        }
      ],
      "name": "executeOperation",
      "outputs": [
        {
          "internalType": "bool",
          "name": "",
          "type": "bool"
        }
      ],
      "stateMutability": "nonpayable",
      "type": "function"
    },
    {
      "inputs": [],
      "name": "funds",
      "outputs": [
        {
          "internalType": "address",
          "name": "sender",
          "type": "address"
        },
        {
          "internalType": "bool",
          "name": "fromInternalBalance",
          "type": "bool"
        },
        {
          "internalType": "address payable",
          "name": "recipient",
          "type": "address"
        },
        {
          "internalType": "bool",
          "name": "toInternalBalance",
          "type": "bool"
        }
      ],
      "stateMutability": "view",
      "type": "function"
    },
    {
      "inputs": [
        {
          "internalType": "address",
          "name": "_debt",
          "type": "address"
        },
        {
          "internalType": "address",
          "name": "_collateral",
          "type": "address"
        },
        {
          "internalType": "address",
          "name": "_user",
          "type": "address"
        },
        {
          "internalType": "uint256",
          "name": "_debtToPay",
          "type": "uint256"
        }
      ],
      "name": "liquidate",
      "outputs": [],
      "stateMutability": "nonpayable",
      "type": "function"
    },
    {
      "inputs": [],
      "name": "owner",
      "outputs": [
        {
          "internalType": "address",
          "name": "",
          "type": "address"
        }
      ],
      "stateMutability": "view",
      "type": "function"
    },
    {
      "inputs": [],
      "name": "renounceOwnership",
      "outputs": [],
      "stateMutability": "nonpayable",
      "type": "function"
    },
    {
      "inputs": [],
      "name": "swapKind",
      "outputs": [
        {
          "internalType": "enum IBalancerVault.SwapKind",
          "name": "",
          "type": "uint8"
        }
      ],
      "stateMutability": "view",
      "type": "function"
    },
    {
      "inputs": [
        {
          "internalType": "address",
          "name": "newOwner",
          "type": "address"
        }
      ],
      "name": "transferOwnership",
      "outputs": [],
      "stateMutability": "nonpayable",
      "type": "function"
    },
    {
      "inputs": [
        {
          "internalType": "address",
          "name": "_user",
          "type": "address"
        }
      ],
      "name": "unhealthyUser",
      "outputs": [
        {
          "internalType": "bool",
          "name": "",
          "type": "bool"
        }
      ],
      "stateMutability": "view",
      "type": "function"
    },
    {
      "inputs": [],
      "name": "uniswapFactoryAddress",
      "outputs": [
        {
          "internalType": "address",
          "name": "",
          "type": "address"
        }
      ],
      "stateMutability": "view",
      "type": "function"
    },
    {
      "inputs": [],
      "name": "uniswapRouter02Address",
      "outputs": [
        {
          "internalType": "address",
          "name": "",
          "type": "address"
        }
      ],
      "stateMutability": "view",
      "type": "function"
    },
    {
      "inputs": [],
      "name": "usdc",
      "outputs": [
        {
          "internalType": "address",
          "name": "",
          "type": "address"
        }
      ],
      "stateMutability": "view",
      "type": "function"
    },
    {
      "inputs": [],
      "name": "weth",
      "outputs": [
        {
          "internalType": "address",
          "name": "",
          "type": "address"
        }
      ],
      "stateMutability": "view",
      "type": "function"
    },
    {
      "inputs": [
        {
          "internalType": "address[]",
          "name": "tokens",
          "type": "address[]"
        }
      ],
      "name": "withdrawTokens",
      "outputs": [],
      "stateMutability": "nonpayable",
      "type": "function"
    },
    {
      "inputs": [],
      "name": "wmatic",
      "outputs": [
        {
          "internalType": "address",
          "name": "",
          "type": "address"
        }
      ],
      "stateMutability": "view",
      "type": "function"
    }
  ],
  "bytecode": "0x60c060405273a5e0829caced8ffdd4de3c43696c57f7d7a678ff600160006101000a81548173ffffffffffffffffffffffffffffffffffffffff021916908373ffffffffffffffffffffffffffffffffffffffff160217905550735757371414417b8c6caad45baef941abc7d3ab32600260006101000a81548173ffffffffffffffffffffffffffffffffffffffff021916908373ffffffffffffffffffffffffffffffffffffffff16021790555073ba12222222228d8ba445958a75a0704d566bf2c8600360006101000a81548173ffffffffffffffffffffffffffffffffffffffff021916908373ffffffffffffffffffffffffffffffffffffffff160217905550737ceb23fd6bc0add59e62ac25578270cff1b9f619600460006101000a81548173ffffffffffffffffffffffffffffffffffffffff021916908373ffffffffffffffffffffffffffffffffffffffff160217905550739a71012b13ca4d3d0cdc72a177df3ef03b0e76a3600560006101000a81548173ffffffffffffffffffffffffffffffffffffffff021916908373ffffffffffffffffffffffffffffffffffffffff160217905550732791bca1f2de4661ed88a30c99a7a9449aa84174600660006101000a81548173ffffffffffffffffffffffffffffffffffffffff021916908373ffffffffffffffffffffffffffffffffffffffff160217905550730d500b1d8e8ef31e21c99d1db9a6444d3adf1270600760006101000a81548173ffffffffffffffffffffffffffffffffffffffff021916908373ffffffffffffffffffffffffffffffffffffffff1602179055503480156200026457600080fd5b50604051620047743803806200477483398181016040528101906200028a9190620005ec565b620002aa6200029e620004c660201b60201c565b620004ce60201b60201c565b8073ffffffffffffffffffffffffffffffffffffffff1660808173ffffffffffffffffffffffffffffffffffffffff1660601b815250508073ffffffffffffffffffffffffffffffffffffffff16630261bf8b6040518163ffffffff1660e01b815260040160206040518083038186803b1580156200032857600080fd5b505afa1580156200033d573d6000803e3d6000fd5b505050506040513d601f19601f82011682018060405250810190620003639190620005c0565b73ffffffffffffffffffffffffffffffffffffffff1660a08173ffffffffffffffffffffffffffffffffffffffff1660601b8152505060405180608001604052803073ffffffffffffffffffffffffffffffffffffffff1681526020016000151581526020013073ffffffffffffffffffffffffffffffffffffffff16815260200160001515815250600860008201518160000160006101000a81548173ffffffffffffffffffffffffffffffffffffffff021916908373ffffffffffffffffffffffffffffffffffffffff16021790555060208201518160000160146101000a81548160ff02191690831515021790555060408201518160010160006101000a81548173ffffffffffffffffffffffffffffffffffffffff021916908373ffffffffffffffffffffffffffffffffffffffff16021790555060608201518160010160146101000a81548160ff0219169083151502179055509050505062000694565b600033905090565b60008060009054906101000a900473ffffffffffffffffffffffffffffffffffffffff169050816000806101000a81548173ffffffffffffffffffffffffffffffffffffffff021916908373ffffffffffffffffffffffffffffffffffffffff1602179055508173ffffffffffffffffffffffffffffffffffffffff168173ffffffffffffffffffffffffffffffffffffffff167f8be0079c531659141344cd1fd0a4f28419497f9722a3daafe3b4186f6b6457e060405160405180910390a35050565b600081519050620005a38162000660565b92915050565b600081519050620005ba816200067a565b92915050565b600060208284031215620005d357600080fd5b6000620005e38482850162000592565b91505092915050565b600060208284031215620005ff57600080fd5b60006200060f84828501620005a9565b91505092915050565b6000620006258262000640565b9050919050565b6000620006398262000618565b9050919050565b600073ffffffffffffffffffffffffffffffffffffffff82169050919050565b6200066b8162000618565b81146200067757600080fd5b50565b62000685816200062c565b81146200069157600080fd5b50565b60805160601c60a05160601c614091620006e36000396000818161039b01528181610b3401528181610f25015281816112490152818161164d01526116730152600061034601526140916000f3fe608060405234801561001057600080fd5b50600436106101165760003560e01c8063715018a6116100a2578063b4625e2f11610071578063b4625e2f146102ad578063b4dcfc77146102cb578063c89f2ce4146102e9578063f2fde38b1461030a578063fb41be161461032657610116565b8063715018a6146102395780638da5cb5b14610243578063920f5c8414610261578063aab3f8681461029157610116565b80633d79d1c8116100e95780633d79d1c8146101a55780633e413bee146101c35780633fc8cef3146101e15780635ecb16cd146101ff578063671f6a261461021b57610116565b80630542975c1461011b578063158274a5146101395780631d340cb5146101575780633655ac3c14610187575b600080fd5b610123610344565b604051610130919061357a565b60405180910390f35b610141610368565b60405161014e91906133cf565b60405180910390f35b610171600480360381019061016c9190612a96565b61038e565b60405161017e919061355f565b60405180910390f35b61018f610466565b60405161019c91906133cf565b60405180910390f35b6101ad61048c565b6040516101ba91906133cf565b60405180910390f35b6101cb6104b2565b6040516101d891906133cf565b60405180910390f35b6101e96104d8565b6040516101f691906133cf565b60405180910390f35b61021960048036038101906102149190612b4b565b6104fe565b005b6102236107a9565b60405161023091906135b0565b60405180910390f35b6102416107bc565b005b61024b610844565b60405161025891906133cf565b60405180910390f35b61027b60048036038101906102769190612b90565b61086d565b604051610288919061355f565b60405180910390f35b6102ab60048036038101906102a69190612ae8565b610b6d565b005b6102b5611221565b6040516102c291906133cf565b60405180910390f35b6102d3611247565b6040516102e09190613595565b60405180910390f35b6102f161126b565b60405161030194939291906134f1565b60405180910390f35b610324600480360381019061031f9190612a96565b6112e3565b005b61032e6113db565b60405161033b91906133cf565b60405180910390f35b7f000000000000000000000000000000000000000000000000000000000000000081565b600360009054906101000a900473ffffffffffffffffffffffffffffffffffffffff1681565b60008060008060008060007f000000000000000000000000000000000000000000000000000000000000000073ffffffffffffffffffffffffffffffffffffffff1663bf92857c896040518263ffffffff1660e01b81526004016103f291906133cf565b60c06040518083038186803b15801561040a57600080fd5b505afa15801561041e573d6000803e3d6000fd5b505050506040513d601f19601f820116820180604052508101906104429190612d34565b955095509550955095509550670de0b6b3a764000081109650505050505050919050565b600260009054906101000a900473ffffffffffffffffffffffffffffffffffffffff1681565b600560009054906101000a900473ffffffffffffffffffffffffffffffffffffffff1681565b600660009054906101000a900473ffffffffffffffffffffffffffffffffffffffff1681565b600460009054906101000a900473ffffffffffffffffffffffffffffffffffffffff1681565b610506611401565b73ffffffffffffffffffffffffffffffffffffffff16610524610844565b73ffffffffffffffffffffffffffffffffffffffff161461057a576040517f08c379a0000000000000000000000000000000000000000000000000000000008152600401610571906136ad565b60405180910390fd5b60005b828290508110156107a457600073eeeeeeeeeeeeeeeeeeeeeeeeeeeeeeeeeeeeeeee73ffffffffffffffffffffffffffffffffffffffff168484848181106105ee577f4e487b7100000000000000000000000000000000000000000000000000000000600052603260045260246000fd5b90506020020160208101906106039190612a96565b73ffffffffffffffffffffffffffffffffffffffff1614156106385747905061063361062d610844565b82611409565b610790565b838383818110610671577f4e487b7100000000000000000000000000000000000000000000000000000000600052603260045260246000fd5b90506020020160208101906106869190612a96565b73ffffffffffffffffffffffffffffffffffffffff166370a08231306040518263ffffffff1660e01b81526004016106be91906133cf565b60206040518083038186803b1580156106d657600080fd5b505afa1580156106ea573d6000803e3d6000fd5b505050506040513d601f19601f8201168201806040525081019061070e9190612d0b565b905061078f61071b610844565b82868686818110610755577f4e487b7100000000000000000000000000000000000000000000000000000000600052603260045260246000fd5b905060200201602081019061076a9190612a96565b73ffffffffffffffffffffffffffffffffffffffff166114fd9092919063ffffffff16565b5b50808061079c90613bdf565b91505061057d565b505050565b600760149054906101000a900460ff1681565b6107c4611401565b73ffffffffffffffffffffffffffffffffffffffff166107e2610844565b73ffffffffffffffffffffffffffffffffffffffff1614610838576040517f08c379a000000000000000000000000000000000000000000000000000000000815260040161082f906136ad565b60405180910390fd5b6108426000611583565b565b60008060009054906101000a900473ffffffffffffffffffffffffffffffffffffffff16905090565b600080838381019061087f9190612ce2565b90506108d98160000151826020015183604001518c8c60008181106108cd577f4e487b7100000000000000000000000000000000000000000000000000000000600052603260045260246000fd5b90506020020135611647565b6000816000015173ffffffffffffffffffffffffffffffffffffffff166370a08231306040518263ffffffff1660e01b815260040161091891906133cf565b60206040518083038186803b15801561093057600080fd5b505afa158015610944573d6000803e3d6000fd5b505050506040513d601f19601f820116820180604052508101906109689190612d0b565b905061097d826000015183602001518361170a565b6000826020015173ffffffffffffffffffffffffffffffffffffffff166370a08231306040518263ffffffff1660e01b81526004016109bc91906133cf565b60206040518083038186803b1580156109d457600080fd5b505afa1580156109e8573d6000803e3d6000fd5b505050506040513d601f19601f82011682018060405250810190610a0c9190612d0b565b9050600089896000818110610a4a577f4e487b7100000000000000000000000000000000000000000000000000000000600052603260045260246000fd5b905060200201358c8c6000818110610a8b577f4e487b7100000000000000000000000000000000000000000000000000000000600052603260045260246000fd5b90506020020135610a9c9190613965565b9050818110610ae0576040517f08c379a0000000000000000000000000000000000000000000000000000000008152600401610ad79061368d565b60405180910390fd5b610b588e8e6000818110610b1d577f4e487b7100000000000000000000000000000000000000000000000000000000600052603260045260246000fd5b9050602002016020810190610b329190612a96565b7f0000000000000000000000000000000000000000000000000000000000000000611a53565b60019450505050509998505050505050505050565b610b75611401565b73ffffffffffffffffffffffffffffffffffffffff16610b93610844565b73ffffffffffffffffffffffffffffffffffffffff1614610be9576040517f08c379a0000000000000000000000000000000000000000000000000000000008152600401610be0906136ad565b60405180910390fd5b610bf28261038e565b610c31576040517f08c379a0000000000000000000000000000000000000000000000000000000008152600401610c28906135ed565b60405180910390fd5b60003090506000600167ffffffffffffffff811115610c79577f4e487b7100000000000000000000000000000000000000000000000000000000600052604160045260246000fd5b604051908082528060200260200182016040528015610ca75781602001602082028036833780820191505090505b5090508581600081518110610ce5577f4e487b7100000000000000000000000000000000000000000000000000000000600052603260045260246000fd5b602002602001019073ffffffffffffffffffffffffffffffffffffffff16908173ffffffffffffffffffffffffffffffffffffffff16815250506000600167ffffffffffffffff811115610d62577f4e487b7100000000000000000000000000000000000000000000000000000000600052604160045260246000fd5b604051908082528060200260200182016040528015610d905781602001602082028036833780820191505090505b5090508381600081518110610dce577f4e487b7100000000000000000000000000000000000000000000000000000000600052603260045260246000fd5b6020026020010181815250506000600167ffffffffffffffff811115610e1d577f4e487b7100000000000000000000000000000000000000000000000000000000600052604160045260246000fd5b604051908082528060200260200182016040528015610e4b5781602001602082028036833780820191505090505b509050600081600081518110610e8a577f4e487b7100000000000000000000000000000000000000000000000000000000600052603260045260246000fd5b6020026020010181815250506000309050600060405180608001604052808a73ffffffffffffffffffffffffffffffffffffffff1681526020018b73ffffffffffffffffffffffffffffffffffffffff1681526020018973ffffffffffffffffffffffffffffffffffffffff16815260200188815250604051602001610f10919061378d565b604051602081830303815290604052905060007f000000000000000000000000000000000000000000000000000000000000000073ffffffffffffffffffffffffffffffffffffffff1663ab9c4b5d888888888888886040518863ffffffff1660e01b8152600401610f889796959493929190613466565b600060405180830381600087803b158015610fa257600080fd5b505af1158015610fb6573d6000803e3d6000fd5b5050505060008b73ffffffffffffffffffffffffffffffffffffffff166370a08231306040518263ffffffff1660e01b8152600401610ff591906133cf565b60206040518083038186803b15801561100d57600080fd5b505afa158015611021573d6000803e3d6000fd5b505050506040513d601f19601f820116820180604052508101906110459190612d0b565b905060008111156110e6578b73ffffffffffffffffffffffffffffffffffffffff1663a9059cbb611074610844565b836040518363ffffffff1660e01b8152600401611092929190613536565b602060405180830381600087803b1580156110ac57600080fd5b505af11580156110c0573d6000803e3d6000fd5b505050506040513d601f19601f820116820180604052508101906110e49190612cb9565b505b60008b73ffffffffffffffffffffffffffffffffffffffff166370a08231306040518263ffffffff1660e01b815260040161112191906133cf565b60206040518083038186803b15801561113957600080fd5b505afa15801561114d573d6000803e3d6000fd5b505050506040513d601f19601f820116820180604052508101906111719190612d0b565b90506000811115611212578b73ffffffffffffffffffffffffffffffffffffffff1663a9059cbb6111a0610844565b836040518363ffffffff1660e01b81526004016111be929190613536565b602060405180830381600087803b1580156111d857600080fd5b505af11580156111ec573d6000803e3d6000fd5b505050506040513d601f19601f820116820180604052508101906112109190612cb9565b505b50505050505050505050505050565b600160009054906101000a900473ffffffffffffffffffffffffffffffffffffffff1681565b7f000000000000000000000000000000000000000000000000000000000000000081565b60088060000160009054906101000a900473ffffffffffffffffffffffffffffffffffffffff16908060000160149054906101000a900460ff16908060010160009054906101000a900473ffffffffffffffffffffffffffffffffffffffff16908060010160149054906101000a900460ff16905084565b6112eb611401565b73ffffffffffffffffffffffffffffffffffffffff16611309610844565b73ffffffffffffffffffffffffffffffffffffffff161461135f576040517f08c379a0000000000000000000000000000000000000000000000000000000008152600401611356906136ad565b60405180910390fd5b600073ffffffffffffffffffffffffffffffffffffffff168173ffffffffffffffffffffffffffffffffffffffff1614156113cf576040517f08c379a00000000000000000000000000000000000000000000000000000000081526004016113c69061360d565b60405180910390fd5b6113d881611583565b50565b600760009054906101000a900473ffffffffffffffffffffffffffffffffffffffff1681565b600033905090565b8047101561144c576040517f08c379a00000000000000000000000000000000000000000000000000000000081526004016114439061364d565b60405180910390fd5b60008273ffffffffffffffffffffffffffffffffffffffff1682604051611472906133ba565b60006040518083038185875af1925050503d80600081146114af576040519150601f19603f3d011682016040523d82523d6000602084013e6114b4565b606091505b50509050806114f8576040517f08c379a00000000000000000000000000000000000000000000000000000000081526004016114ef9061362d565b60405180910390fd5b505050565b61157e8363a9059cbb60e01b848460405160240161151c929190613536565b604051602081830303815290604052907bffffffffffffffffffffffffffffffffffffffffffffffffffffffff19166020820180517bffffffffffffffffffffffffffffffffffffffffffffffffffffffff8381831617835250505050611b3c565b505050565b60008060009054906101000a900473ffffffffffffffffffffffffffffffffffffffff169050816000806101000a81548173ffffffffffffffffffffffffffffffffffffffff021916908373ffffffffffffffffffffffffffffffffffffffff1602179055508173ffffffffffffffffffffffffffffffffffffffff168173ffffffffffffffffffffffffffffffffffffffff167f8be0079c531659141344cd1fd0a4f28419497f9722a3daafe3b4186f6b6457e060405160405180910390a35050565b611671837f0000000000000000000000000000000000000000000000000000000000000000611a53565b7f000000000000000000000000000000000000000000000000000000000000000073ffffffffffffffffffffffffffffffffffffffff1662a718a98585858560006040518663ffffffff1660e01b81526004016116d2959493929190613413565b600060405180830381600087803b1580156116ec57600080fd5b505af1158015611700573d6000803e3d6000fd5b5050505050505050565b600560009054906101000a900473ffffffffffffffffffffffffffffffffffffffff1673ffffffffffffffffffffffffffffffffffffffff168373ffffffffffffffffffffffffffffffffffffffff1614806117b35750600560009054906101000a900473ffffffffffffffffffffffffffffffffffffffff1673ffffffffffffffffffffffffffffffffffffffff168273ffffffffffffffffffffffffffffffffffffffff16145b15611a4157600460009054906101000a900473ffffffffffffffffffffffffffffffffffffffff1673ffffffffffffffffffffffffffffffffffffffff168273ffffffffffffffffffffffffffffffffffffffff1614806118615750600460009054906101000a900473ffffffffffffffffffffffffffffffffffffffff1673ffffffffffffffffffffffffffffffffffffffff168373ffffffffffffffffffffffffffffffffffffffff16145b806118b95750600660009054906101000a900473ffffffffffffffffffffffffffffffffffffffff1673ffffffffffffffffffffffffffffffffffffffff168273ffffffffffffffffffffffffffffffffffffffff16145b806119115750600660009054906101000a900473ffffffffffffffffffffffffffffffffffffffff1673ffffffffffffffffffffffffffffffffffffffff168373ffffffffffffffffffffffffffffffffffffffff16145b806119695750600760009054906101000a900473ffffffffffffffffffffffffffffffffffffffff1673ffffffffffffffffffffffffffffffffffffffff168273ffffffffffffffffffffffffffffffffffffffff16145b806119c15750600760009054906101000a900473ffffffffffffffffffffffffffffffffffffffff1673ffffffffffffffffffffffffffffffffffffffff168373ffffffffffffffffffffffffffffffffffffffff16145b15611a015760007f0297e37f1873d2dab4487aa67cd56b58e2f2787500010000000000000000000260001b90506119fa81858585611c03565b5050611a3c565b6040517f08c379a0000000000000000000000000000000000000000000000000000000008152600401611a33906136cd565b60405180910390fd5b611a4e565b611a4c838383611da4565b505b505050565b600082905060008173ffffffffffffffffffffffffffffffffffffffff1663dd62ed3e30856040518363ffffffff1660e01b8152600401611a959291906133ea565b60206040518083038186803b158015611aad57600080fd5b505afa158015611ac1573d6000803e3d6000fd5b505050506040513d601f19601f82011682018060405250810190611ae59190612d0b565b1415611b3757611b36827fffffffffffffffffffffffffffffffffffffffffffffffffffffffffffffffff8373ffffffffffffffffffffffffffffffffffffffff166125319092919063ffffffff16565b5b505050565b6000611b9e826040518060400160405280602081526020017f5361666545524332303a206c6f772d6c6576656c2063616c6c206661696c65648152508573ffffffffffffffffffffffffffffffffffffffff1661268f9092919063ffffffff16565b9050600081511115611bfe5780806020019051810190611bbe9190612cb9565b611bfd576040517f08c379a0000000000000000000000000000000000000000000000000000000008152600401611bf49061374d565b60405180910390fd5b5b505050565b6000611c3184600360009054906101000a900473ffffffffffffffffffffffffffffffffffffffff16611a53565b60006040518060c00160405280878152602001600760149054906101000a900460ff166001811115611c8c577f4e487b7100000000000000000000000000000000000000000000000000000000600052602160045260246000fd5b81526020018673ffffffffffffffffffffffffffffffffffffffff1681526020018573ffffffffffffffffffffffffffffffffffffffff168152602001848152602001604051806020016040528060008152508152509050600360009054906101000a900473ffffffffffffffffffffffffffffffffffffffff1673ffffffffffffffffffffffffffffffffffffffff166352bbbe298260086001426040518563ffffffff1660e01b8152600401611d4794939291906137a8565b602060405180830381600087803b158015611d6157600080fd5b505af1158015611d75573d6000803e3d6000fd5b505050506040513d601f19601f82011682018060405250810190611d999190612d0b565b915050949350505050565b60008273ffffffffffffffffffffffffffffffffffffffff168473ffffffffffffffffffffffffffffffffffffffff161415611de25781905061252a565b611e0e84600160009054906101000a900473ffffffffffffffffffffffffffffffffffffffff16611a53565b6000600260009054906101000a900473ffffffffffffffffffffffffffffffffffffffff1673ffffffffffffffffffffffffffffffffffffffff1663e6a4390586866040518363ffffffff1660e01b8152600401611e6d9291906133ea565b60206040518083038186803b158015611e8557600080fd5b505afa158015611e99573d6000803e3d6000fd5b505050506040513d601f19601f82011682018060405250810190611ebd9190612abf565b9050600073ffffffffffffffffffffffffffffffffffffffff168173ffffffffffffffffffffffffffffffffffffffff16146121c4576000600267ffffffffffffffff811115611f36577f4e487b7100000000000000000000000000000000000000000000000000000000600052604160045260246000fd5b604051908082528060200260200182016040528015611f645781602001602082028036833780820191505090505b5090508581600081518110611fa2577f4e487b7100000000000000000000000000000000000000000000000000000000600052603260045260246000fd5b602002602001019073ffffffffffffffffffffffffffffffffffffffff16908173ffffffffffffffffffffffffffffffffffffffff16815250508481600181518110612017577f4e487b7100000000000000000000000000000000000000000000000000000000600052603260045260246000fd5b602002602001019073ffffffffffffffffffffffffffffffffffffffff16908173ffffffffffffffffffffffffffffffffffffffff1681525050600160009054906101000a900473ffffffffffffffffffffffffffffffffffffffff1673ffffffffffffffffffffffffffffffffffffffff166338ed173985600184307ff0000000000000000000000000000000000000000000000000000000000000006040518663ffffffff1660e01b81526004016120d59594939291906137f4565b600060405180830381600087803b1580156120ef57600080fd5b505af1158015612103573d6000803e3d6000fd5b505050506040513d6000823e3d601f19601f8201168201806040525081019061212c9190612c78565b6001825161213a91906139bb565b81518110612171577f4e487b7100000000000000000000000000000000000000000000000000000000600052603260045260246000fd5b60200260200101519250600083116121be576040517f08c379a00000000000000000000000000000000000000000000000000000000081526004016121b59061370d565b60405180910390fd5b50612528565b6000600367ffffffffffffffff811115612207577f4e487b7100000000000000000000000000000000000000000000000000000000600052604160045260246000fd5b6040519080825280602002602001820160405280156122355781602001602082028036833780820191505090505b5090508581600081518110612273577f4e487b7100000000000000000000000000000000000000000000000000000000600052603260045260246000fd5b602002602001019073ffffffffffffffffffffffffffffffffffffffff16908173ffffffffffffffffffffffffffffffffffffffff1681525050600460009054906101000a900473ffffffffffffffffffffffffffffffffffffffff168160018151811061230a577f4e487b7100000000000000000000000000000000000000000000000000000000600052603260045260246000fd5b602002602001019073ffffffffffffffffffffffffffffffffffffffff16908173ffffffffffffffffffffffffffffffffffffffff1681525050848160028151811061237f577f4e487b7100000000000000000000000000000000000000000000000000000000600052603260045260246000fd5b602002602001019073ffffffffffffffffffffffffffffffffffffffff16908173ffffffffffffffffffffffffffffffffffffffff1681525050600160009054906101000a900473ffffffffffffffffffffffffffffffffffffffff1673ffffffffffffffffffffffffffffffffffffffff166338ed173985600184307ff0000000000000000000000000000000000000000000000000000000000000006040518663ffffffff1660e01b815260040161243d9594939291906137f4565b600060405180830381600087803b15801561245757600080fd5b505af115801561246b573d6000803e3d6000fd5b505050506040513d6000823e3d601f19601f820116820180604052508101906124949190612c78565b600182516124a291906139bb565b815181106124d9577f4e487b7100000000000000000000000000000000000000000000000000000000600052603260045260246000fd5b6020026020010151925060008311612526576040517f08c379a000000000000000000000000000000000000000000000000000000000815260040161251d906136ed565b60405180910390fd5b505b505b9392505050565b60008114806125ca575060008373ffffffffffffffffffffffffffffffffffffffff1663dd62ed3e30856040518363ffffffff1660e01b81526004016125789291906133ea565b60206040518083038186803b15801561259057600080fd5b505afa1580156125a4573d6000803e3d6000fd5b505050506040513d601f19601f820116820180604052508101906125c89190612d0b565b145b612609576040517f08c379a00000000000000000000000000000000000000000000000000000000081526004016126009061376d565b60405180910390fd5b61268a8363095ea7b360e01b8484604051602401612628929190613536565b604051602081830303815290604052907bffffffffffffffffffffffffffffffffffffffffffffffffffffffff19166020820180517bffffffffffffffffffffffffffffffffffffffffffffffffffffffff8381831617835250505050611b3c565b505050565b606061269e84846000856126a7565b90509392505050565b6060824710156126ec576040517f08c379a00000000000000000000000000000000000000000000000000000000081526004016126e39061366d565b60405180910390fd5b6126f5856127bb565b612734576040517f08c379a000000000000000000000000000000000000000000000000000000000815260040161272b9061372d565b60405180910390fd5b6000808673ffffffffffffffffffffffffffffffffffffffff16858760405161275d91906133a3565b60006040518083038185875af1925050503d806000811461279a576040519150601f19603f3d011682016040523d82523d6000602084013e61279f565b606091505b50915091506127af8282866127de565b92505050949350505050565b6000808273ffffffffffffffffffffffffffffffffffffffff163b119050919050565b606083156127ee5782905061283e565b6000835111156128015782518084602001fd5b816040517f08c379a000000000000000000000000000000000000000000000000000000000815260040161283591906135cb565b60405180910390fd5b9392505050565b600061285861285384613873565b61384e565b9050808382526020820190508285602086028201111561287757600080fd5b60005b858110156128a7578161288d8882612a81565b84526020840193506020830192505060018101905061287a565b5050509392505050565b6000813590506128c081614016565b92915050565b6000815190506128d581614016565b92915050565b60008083601f8401126128ed57600080fd5b8235905067ffffffffffffffff81111561290657600080fd5b60208301915083602082028301111561291e57600080fd5b9250929050565b60008083601f84011261293757600080fd5b8235905067ffffffffffffffff81111561295057600080fd5b60208301915083602082028301111561296857600080fd5b9250929050565b600082601f83011261298057600080fd5b8151612990848260208601612845565b91505092915050565b6000815190506129a88161402d565b92915050565b60008083601f8401126129c057600080fd5b8235905067ffffffffffffffff8111156129d957600080fd5b6020830191508360018202830111156129f157600080fd5b9250929050565b600060808284031215612a0a57600080fd5b612a14608061384e565b90506000612a24848285016128b1565b6000830152506020612a38848285016128b1565b6020830152506040612a4c848285016128b1565b6040830152506060612a6084828501612a6c565b60608301525092915050565b600081359050612a7b81614044565b92915050565b600081519050612a9081614044565b92915050565b600060208284031215612aa857600080fd5b6000612ab6848285016128b1565b91505092915050565b600060208284031215612ad157600080fd5b6000612adf848285016128c6565b91505092915050565b60008060008060808587031215612afe57600080fd5b6000612b0c878288016128b1565b9450506020612b1d878288016128b1565b9350506040612b2e878288016128b1565b9250506060612b3f87828801612a6c565b91505092959194509250565b60008060208385031215612b5e57600080fd5b600083013567ffffffffffffffff811115612b7857600080fd5b612b84858286016128db565b92509250509250929050565b600080600080600080600080600060a08a8c031215612bae57600080fd5b60008a013567ffffffffffffffff811115612bc857600080fd5b612bd48c828d016128db565b995099505060208a013567ffffffffffffffff811115612bf357600080fd5b612bff8c828d01612925565b975097505060408a013567ffffffffffffffff811115612c1e57600080fd5b612c2a8c828d01612925565b95509550506060612c3d8c828d016128b1565b93505060808a013567ffffffffffffffff811115612c5a57600080fd5b612c668c828d016129ae565b92509250509295985092959850929598565b600060208284031215612c8a57600080fd5b600082015167ffffffffffffffff811115612ca457600080fd5b612cb08482850161296f565b91505092915050565b600060208284031215612ccb57600080fd5b6000612cd984828501612999565b91505092915050565b600060808284031215612cf457600080fd5b6000612d02848285016129f8565b91505092915050565b600060208284031215612d1d57600080fd5b6000612d2b84828501612a81565b91505092915050565b60008060008060008060c08789031215612d4d57600080fd5b6000612d5b89828a01612a81565b9650506020612d6c89828a01612a81565b9550506040612d7d89828a01612a81565b9450506060612d8e89828a01612a81565b9350506080612d9f89828a01612a81565b92505060a0612db089828a01612a81565b9150509295509295509295565b6000612dc98383612e0b565b60208301905092915050565b6000612de18383613385565b60208301905092915050565b612df681613a4e565b82525050565b612e0581613a4e565b82525050565b612e1481613a3c565b82525050565b612e2381613a3c565b82525050565b6000612e34826138bf565b612e3e8185613905565b9350612e498361389f565b8060005b83811015612e7a578151612e618882612dbd565b9750612e6c836138eb565b925050600181019050612e4d565b5085935050505092915050565b6000612e92826138ca565b612e9c8185613916565b9350612ea7836138af565b8060005b83811015612ed8578151612ebf8882612dd5565b9750612eca836138f8565b925050600181019050612eab565b5085935050505092915050565b612eee81613a60565b82525050565b612efd81613a60565b82525050565b612f0c81613a6c565b82525050565b6000612f1d826138d5565b612f278185613927565b9350612f37818560208601613b2d565b612f4081613cb5565b840191505092915050565b6000612f56826138d5565b612f608185613938565b9350612f70818560208601613b2d565b612f7981613cb5565b840191505092915050565b6000612f8f826138d5565b612f998185613949565b9350612fa9818560208601613b2d565b80840191505092915050565b612fbe81613ac1565b82525050565b612fcd81613ae5565b82525050565b612fdc81613b09565b82525050565b612feb81613b09565b82525050565b612ffa81613b1b565b82525050565b600061300b826138e0565b6130158185613954565b9350613025818560208601613b2d565b61302e81613cb5565b840191505092915050565b6000613046601083613954565b915061305182613ce0565b602082019050919050565b6000613069602683613954565b915061307482613d09565b604082019050919050565b600061308c603a83613954565b915061309782613d58565b604082019050919050565b60006130af601d83613954565b91506130ba82613da7565b602082019050919050565b60006130d2602683613954565b91506130dd82613dd0565b604082019050919050565b60006130f5602b83613954565b915061310082613e1f565b604082019050919050565b6000613118602083613954565b915061312382613e6e565b602082019050919050565b600061313b602483613954565b915061314682613e97565b604082019050919050565b600061315e601783613954565b915061316982613ee6565b602082019050919050565b6000613181601783613954565b915061318c82613f0f565b602082019050919050565b60006131a4600083613949565b91506131af82613f38565b600082019050919050565b60006131c7601d83613954565b91506131d282613f3b565b602082019050919050565b60006131ea602a83613954565b91506131f582613f64565b604082019050919050565b600061320d603683613954565b915061321882613fb3565b604082019050919050565b60808201600080830154905061323881613b60565b6132456000860182612e0b565b5061324f81613b94565b61325c6020860182612ee5565b506001830154905061326d81613b7a565b61327a6040860182612ded565b5061328481613b94565b6132916060860182612ee5565b5050505050565b6080820160008201516132ae6000850182612e0b565b5060208201516132c16020850182612e0b565b5060408201516132d46040850182612e0b565b5060608201516132e76060850182613385565b50505050565b600060c0830160008301516133056000860182612f03565b5060208301516133186020860182612fd3565b50604083015161332b6040860182612e0b565b50606083015161333e6060860182612e0b565b5060808301516133516080860182613385565b5060a083015184820360a08601526133698282612f12565b9150508091505092915050565b61337f81613a89565b82525050565b61338e81613ab7565b82525050565b61339d81613ab7565b82525050565b60006133af8284612f84565b915081905092915050565b60006133c582613197565b9150819050919050565b60006020820190506133e46000830184612e1a565b92915050565b60006040820190506133ff6000830185612e1a565b61340c6020830184612e1a565b9392505050565b600060a0820190506134286000830188612e1a565b6134356020830187612e1a565b6134426040830186612e1a565b61344f6060830185613394565b61345c6080830184612ef4565b9695505050505050565b600060e08201905061347b600083018a612e1a565b818103602083015261348d8189612e29565b905081810360408301526134a18188612e87565b905081810360608301526134b58187612e87565b90506134c46080830186612e1a565b81810360a08301526134d68185612f4b565b90506134e560c0830184613376565b98975050505050505050565b60006080820190506135066000830187612e1a565b6135136020830186612ef4565b6135206040830185612dfc565b61352d6060830184612ef4565b95945050505050565b600060408201905061354b6000830185612e1a565b6135586020830184613394565b9392505050565b60006020820190506135746000830184612ef4565b92915050565b600060208201905061358f6000830184612fb5565b92915050565b60006020820190506135aa6000830184612fc4565b92915050565b60006020820190506135c56000830184612fe2565b92915050565b600060208201905081810360008301526135e58184613000565b905092915050565b6000602082019050818103600083015261360681613039565b9050919050565b600060208201905081810360008301526136268161305c565b9050919050565b600060208201905081810360008301526136468161307f565b9050919050565b60006020820190508181036000830152613666816130a2565b9050919050565b60006020820190508181036000830152613686816130c5565b9050919050565b600060208201905081810360008301526136a6816130e8565b9050919050565b600060208201905081810360008301526136c68161310b565b9050919050565b600060208201905081810360008301526136e68161312e565b9050919050565b6000602082019050818103600083015261370681613151565b9050919050565b6000602082019050818103600083015261372681613174565b9050919050565b60006020820190508181036000830152613746816131ba565b9050919050565b60006020820190508181036000830152613766816131dd565b9050919050565b6000602082019050818103600083015261378681613200565b9050919050565b60006080820190506137a26000830184613298565b92915050565b600060e08201905081810360008301526137c281876132ed565b90506137d16020830186613223565b6137de60a0830185612ff1565b6137eb60c0830184613394565b95945050505050565b600060a0820190506138096000830188613394565b6138166020830187612ff1565b81810360408301526138288186612e29565b90506138376060830185612e1a565b6138446080830184613394565b9695505050505050565b6000613858613869565b90506138648282613bae565b919050565b6000604051905090565b600067ffffffffffffffff82111561388e5761388d613c86565b5b602082029050602081019050919050565b6000819050602082019050919050565b6000819050602082019050919050565b600081519050919050565b600081519050919050565b600081519050919050565b600081519050919050565b6000602082019050919050565b6000602082019050919050565b600082825260208201905092915050565b600082825260208201905092915050565b600082825260208201905092915050565b600082825260208201905092915050565b600081905092915050565b600082825260208201905092915050565b600061397082613ab7565b915061397b83613ab7565b9250827fffffffffffffffffffffffffffffffffffffffffffffffffffffffffffffffff038211156139b0576139af613c28565b5b828201905092915050565b60006139c682613ab7565b91506139d183613ab7565b9250828210156139e4576139e3613c28565b5b828203905092915050565b600073ffffffffffffffffffffffffffffffffffffffff82169050919050565b600073ffffffffffffffffffffffffffffffffffffffff82169050919050565b600060ff82169050919050565b6000613a4782613a97565b9050919050565b6000613a5982613a97565b9050919050565b60008115159050919050565b6000819050919050565b6000819050613a8482614002565b919050565b600061ffff82169050919050565b600073ffffffffffffffffffffffffffffffffffffffff82169050919050565b6000819050919050565b6000613acc82613ad3565b9050919050565b6000613ade82613a97565b9050919050565b6000613af082613af7565b9050919050565b6000613b0282613a97565b9050919050565b6000613b1482613a76565b9050919050565b6000613b2682613ab7565b9050919050565b60005b83811015613b4b578082015181840152602081019050613b30565b83811115613b5a576000848401525b50505050565b6000613b73613b6e83613cc6565b6139ef565b9050919050565b6000613b8d613b8883613cc6565b613a0f565b9050919050565b6000613ba7613ba283613cd3565b613a2f565b9050919050565b613bb782613cb5565b810181811067ffffffffffffffff82111715613bd657613bd5613c86565b5b80604052505050565b6000613bea82613ab7565b91507fffffffffffffffffffffffffffffffffffffffffffffffffffffffffffffffff821415613c1d57613c1c613c28565b5b600182019050919050565b7f4e487b7100000000000000000000000000000000000000000000000000000000600052601160045260246000fd5b7f4e487b7100000000000000000000000000000000000000000000000000000000600052602160045260246000fd5b7f4e487b7100000000000000000000000000000000000000000000000000000000600052604160045260246000fd5b6000601f19601f8301169050919050565b60008160001c9050919050565b60008160a01c9050919050565b7f7573657220776173206865616c74687900000000000000000000000000000000600082015250565b7f4f776e61626c653a206e6577206f776e657220697320746865207a65726f206160008201527f6464726573730000000000000000000000000000000000000000000000000000602082015250565b7f416464726573733a20756e61626c6520746f2073656e642076616c75652c207260008201527f6563697069656e74206d61792068617665207265766572746564000000000000602082015250565b7f416464726573733a20696e73756666696369656e742062616c616e6365000000600082015250565b7f416464726573733a20696e73756666696369656e742062616c616e636520666f60008201527f722063616c6c0000000000000000000000000000000000000000000000000000602082015250565b7f6469646e742774207265636569766520656e6f756768206465627420746f6b6560008201527f6e7320746f207265706179000000000000000000000000000000000000000000602082015250565b7f4f776e61626c653a2063616c6c6572206973206e6f7420746865206f776e6572600082015250565b7f6e6f20636f72726563742062616c616e636572207061746820696d706c656d6560008201527f6e74656400000000000000000000000000000000000000000000000000000000602082015250565b7f4572726f72205377617070696e6720546f6b656e732033000000000000000000600082015250565b7f4572726f72205377617070696e6720546f6b656e732032000000000000000000600082015250565b50565b7f416464726573733a2063616c6c20746f206e6f6e2d636f6e7472616374000000600082015250565b7f5361666545524332303a204552433230206f7065726174696f6e20646964206e60008201527f6f74207375636365656400000000000000000000000000000000000000000000602082015250565b7f5361666545524332303a20617070726f76652066726f6d206e6f6e2d7a65726f60008201527f20746f206e6f6e2d7a65726f20616c6c6f77616e636500000000000000000000602082015250565b6002811061401357614012613c57565b5b50565b61401f81613a3c565b811461402a57600080fd5b50565b61403681613a60565b811461404157600080fd5b50565b61404d81613ab7565b811461405857600080fd5b5056fea2646970667358221220257c08a8b45e1b4d0802a3fd5ab75358a2d823b7623640422ba81e13910365dc64736f6c63430008040033",
  "linkReferences": {},
  "deployedLinkReferences": {}
}