{
  "_format": "hh-sol-artifact-1",
  "contractName": "AaveLiquidator",
  "sourceName": "contracts/AaveLiquidator.sol",
  "abi": [
    {
      "inputs": [
        {
          "internalType": "contract ILendingPoolAddressesProvider",
          "name": "_addressProvider",
          "type": "address"
        }
      ],
      "stateMutability": "nonpayable",
      "type": "constructor"
    },
    {
      "anonymous": false,
      "inputs": [
        {
          "indexed": true,
          "internalType": "address",
          "name": "previousOwner",
          "type": "address"
        },
        {
          "indexed": true,
          "internalType": "address",
          "name": "newOwner",
          "type": "address"
        }
      ],
      "name": "OwnershipTransferred",
      "type": "event"
    },
    {
      "inputs": [],
      "name": "ADDRESSES_PROVIDER",
      "outputs": [
        {
          "internalType": "contract ILendingPoolAddressesProvider",
          "name": "",
          "type": "address"
        }
      ],
      "stateMutability": "view",
      "type": "function"
    },
    {
      "inputs": [],
      "name": "LENDING_POOL",
      "outputs": [
        {
          "internalType": "contract ILendingPool",
          "name": "",
          "type": "address"
        }
      ],
      "stateMutability": "view",
      "type": "function"
    },
    {
      "inputs": [
        {
          "internalType": "address[]",
          "name": "assets",
          "type": "address[]"
        },
        {
          "internalType": "uint256[]",
          "name": "amounts",
          "type": "uint256[]"
        },
        {
          "internalType": "uint256[]",
          "name": "premiums",
          "type": "uint256[]"
        },
        {
          "internalType": "address",
          "name": "initiator",
          "type": "address"
        },
        {
          "internalType": "bytes",
          "name": "params",
          "type": "bytes"
        }
      ],
      "name": "executeOperation",
      "outputs": [
        {
          "internalType": "bool",
          "name": "",
          "type": "bool"
        }
      ],
      "stateMutability": "nonpayable",
      "type": "function"
    },
    {
      "inputs": [
        {
          "internalType": "address",
          "name": "_debt",
          "type": "address"
        },
        {
          "internalType": "address",
          "name": "_collateral",
          "type": "address"
        },
        {
          "internalType": "address",
          "name": "_user",
          "type": "address"
        },
        {
          "internalType": "uint256",
          "name": "_debtToPay",
          "type": "uint256"
        }
      ],
      "name": "liquidate",
      "outputs": [],
      "stateMutability": "nonpayable",
      "type": "function"
    },
    {
      "inputs": [],
      "name": "owner",
      "outputs": [
        {
          "internalType": "address",
          "name": "",
          "type": "address"
        }
      ],
      "stateMutability": "view",
      "type": "function"
    },
    {
      "inputs": [],
      "name": "renounceOwnership",
      "outputs": [],
      "stateMutability": "nonpayable",
      "type": "function"
    },
    {
      "inputs": [
        {
          "internalType": "address",
          "name": "newOwner",
          "type": "address"
        }
      ],
      "name": "transferOwnership",
      "outputs": [],
      "stateMutability": "nonpayable",
      "type": "function"
    },
    {
      "inputs": [
        {
          "internalType": "address",
          "name": "_user",
          "type": "address"
        }
      ],
      "name": "unhealthyUser",
      "outputs": [
        {
          "internalType": "bool",
          "name": "",
          "type": "bool"
        }
      ],
      "stateMutability": "view",
      "type": "function"
    },
    {
      "inputs": [],
      "name": "uniswapFactoryAddress",
      "outputs": [
        {
          "internalType": "address",
          "name": "",
          "type": "address"
        }
      ],
      "stateMutability": "view",
      "type": "function"
    },
    {
      "inputs": [],
      "name": "uniswapRouter02Address",
      "outputs": [
        {
          "internalType": "address",
          "name": "",
          "type": "address"
        }
      ],
      "stateMutability": "view",
      "type": "function"
    },
    {
      "inputs": [],
      "name": "weth",
      "outputs": [
        {
          "internalType": "address",
          "name": "",
          "type": "address"
        }
      ],
      "stateMutability": "view",
      "type": "function"
    },
    {
      "inputs": [
        {
          "internalType": "address[]",
          "name": "tokens",
          "type": "address[]"
        }
      ],
      "name": "withdrawTokens",
      "outputs": [],
      "stateMutability": "nonpayable",
      "type": "function"
    }
  ],
  "bytecode": "0x60c060405273a5e0829caced8ffdd4de3c43696c57f7d7a678ff600160006101000a81548173ffffffffffffffffffffffffffffffffffffffff021916908373ffffffffffffffffffffffffffffffffffffffff160217905550735757371414417b8c6caad45baef941abc7d3ab32600260006101000a81548173ffffffffffffffffffffffffffffffffffffffff021916908373ffffffffffffffffffffffffffffffffffffffff160217905550737ceb23fd6bc0add59e62ac25578270cff1b9f619600360006101000a81548173ffffffffffffffffffffffffffffffffffffffff021916908373ffffffffffffffffffffffffffffffffffffffff1602179055503480156200011057600080fd5b5060405162003b6e38038062003b6e833981810160405281019062000136919062000372565b620001566200014a6200024c60201b60201c565b6200025460201b60201c565b8073ffffffffffffffffffffffffffffffffffffffff1660808173ffffffffffffffffffffffffffffffffffffffff1660601b815250508073ffffffffffffffffffffffffffffffffffffffff16630261bf8b6040518163ffffffff1660e01b815260040160206040518083038186803b158015620001d457600080fd5b505afa158015620001e9573d6000803e3d6000fd5b505050506040513d601f19601f820116820180604052508101906200020f919062000346565b73ffffffffffffffffffffffffffffffffffffffff1660a08173ffffffffffffffffffffffffffffffffffffffff1660601b81525050506200041a565b600033905090565b60008060009054906101000a900473ffffffffffffffffffffffffffffffffffffffff169050816000806101000a81548173ffffffffffffffffffffffffffffffffffffffff021916908373ffffffffffffffffffffffffffffffffffffffff1602179055508173ffffffffffffffffffffffffffffffffffffffff168173ffffffffffffffffffffffffffffffffffffffff167f8be0079c531659141344cd1fd0a4f28419497f9722a3daafe3b4186f6b6457e060405160405180910390a35050565b6000815190506200032981620003e6565b92915050565b600081519050620003408162000400565b92915050565b6000602082840312156200035957600080fd5b6000620003698482850162000318565b91505092915050565b6000602082840312156200038557600080fd5b600062000395848285016200032f565b91505092915050565b6000620003ab82620003c6565b9050919050565b6000620003bf826200039e565b9050919050565b600073ffffffffffffffffffffffffffffffffffffffff82169050919050565b620003f1816200039e565b8114620003fd57600080fd5b50565b6200040b81620003b2565b81146200041757600080fd5b50565b60805160601c60a05160601c613705620004696000396000818161025c01528181610a5401528181610e4501528181611169015281816114cf01526114f50152600061022d01526137056000f3fe608060405234801561001057600080fd5b50600436106100b45760003560e01c80638da5cb5b116100715780638da5cb5b14610169578063920f5c8414610187578063aab3f868146101b7578063b4625e2f146101d3578063b4dcfc77146101f1578063f2fde38b1461020f576100b4565b80630542975c146100b95780631d340cb5146100d75780633655ac3c146101075780633fc8cef3146101255780635ecb16cd14610143578063715018a61461015f575b600080fd5b6100c161022b565b6040516100ce9190612dde565b60405180910390f35b6100f160048036038101906100ec91906124f3565b61024f565b6040516100fe9190612dc3565b60405180910390f35b61010f610327565b60405161011c9190612c78565b60405180910390f35b61012d61034d565b60405161013a9190612c78565b60405180910390f35b61015d600480360381019061015891906125a8565b610373565b005b61016761061e565b005b6101716106a6565b60405161017e9190612c78565b60405180910390f35b6101a1600480360381019061019c91906125ed565b6106cf565b6040516101ae9190612dc3565b60405180910390f35b6101d160048036038101906101cc9190612545565b610a8d565b005b6101db611141565b6040516101e89190612c78565b60405180910390f35b6101f9611167565b6040516102069190612df9565b60405180910390f35b610229600480360381019061022491906124f3565b61118b565b005b7f000000000000000000000000000000000000000000000000000000000000000081565b60008060008060008060007f000000000000000000000000000000000000000000000000000000000000000073ffffffffffffffffffffffffffffffffffffffff1663bf92857c896040518263ffffffff1660e01b81526004016102b39190612c78565b60c06040518083038186803b1580156102cb57600080fd5b505afa1580156102df573d6000803e3d6000fd5b505050506040513d601f19601f820116820180604052508101906103039190612791565b955095509550955095509550670de0b6b3a764000081109650505050505050919050565b600260009054906101000a900473ffffffffffffffffffffffffffffffffffffffff1681565b600360009054906101000a900473ffffffffffffffffffffffffffffffffffffffff1681565b61037b611283565b73ffffffffffffffffffffffffffffffffffffffff166103996106a6565b73ffffffffffffffffffffffffffffffffffffffff16146103ef576040517f08c379a00000000000000000000000000000000000000000000000000000000081526004016103e690612f26565b60405180910390fd5b60005b8282905081101561061957600073eeeeeeeeeeeeeeeeeeeeeeeeeeeeeeeeeeeeeeee73ffffffffffffffffffffffffffffffffffffffff16848484818110610463577f4e487b7100000000000000000000000000000000000000000000000000000000600052603260045260246000fd5b905060200201602081019061047891906124f3565b73ffffffffffffffffffffffffffffffffffffffff1614156104ad574790506104a86104a26106a6565b8261128b565b610605565b8383838181106104e6577f4e487b7100000000000000000000000000000000000000000000000000000000600052603260045260246000fd5b90506020020160208101906104fb91906124f3565b73ffffffffffffffffffffffffffffffffffffffff166370a08231306040518263ffffffff1660e01b81526004016105339190612c78565b60206040518083038186803b15801561054b57600080fd5b505afa15801561055f573d6000803e3d6000fd5b505050506040513d601f19601f820116820180604052508101906105839190612768565b90506106046105906106a6565b828686868181106105ca577f4e487b7100000000000000000000000000000000000000000000000000000000600052603260045260246000fd5b90506020020160208101906105df91906124f3565b73ffffffffffffffffffffffffffffffffffffffff1661137f9092919063ffffffff16565b5b508080610611906132ff565b9150506103f2565b505050565b610626611283565b73ffffffffffffffffffffffffffffffffffffffff166106446106a6565b73ffffffffffffffffffffffffffffffffffffffff161461069a576040517f08c379a000000000000000000000000000000000000000000000000000000000815260040161069190612f26565b60405180910390fd5b6106a46000611405565b565b60008060009054906101000a900473ffffffffffffffffffffffffffffffffffffffff16905090565b60008083838101906106e1919061273f565b905061073b8160000151826020015183604001518c8c600081811061072f577f4e487b7100000000000000000000000000000000000000000000000000000000600052603260045260246000fd5b905060200201356114c9565b6000816000015173ffffffffffffffffffffffffffffffffffffffff166370a08231306040518263ffffffff1660e01b815260040161077a9190612c78565b60206040518083038186803b15801561079257600080fd5b505afa1580156107a6573d6000803e3d6000fd5b505050506040513d601f19601f820116820180604052508101906107ca9190612768565b905061080b6040518060400160405280601681526020017f726563656976656420257320636f6c6c61746572616c000000000000000000008152508261158c565b61081e8260000151836020015183611628565b506000826020015173ffffffffffffffffffffffffffffffffffffffff166370a08231306040518263ffffffff1660e01b815260040161085e9190612c78565b60206040518083038186803b15801561087657600080fd5b505afa15801561088a573d6000803e3d6000fd5b505050506040513d601f19601f820116820180604052508101906108ae9190612768565b90506108ef6040518060400160405280602081526020017f7265636569766564202573206465627420616674657220717569636b737761708152508261158c565b60008989600081811061092b577f4e487b7100000000000000000000000000000000000000000000000000000000600052603260045260246000fd5b905060200201358c8c600081811061096c577f4e487b7100000000000000000000000000000000000000000000000000000000600052603260045260246000fd5b9050602002013561097d9190613161565b90506109be6040518060400160405280601081526020017f6f77696e67202573206f66206c6f616e000000000000000000000000000000008152508261158c565b818110610a00576040517f08c379a00000000000000000000000000000000000000000000000000000000081526004016109f790612f06565b60405180910390fd5b610a788e8e6000818110610a3d577f4e487b7100000000000000000000000000000000000000000000000000000000600052603260045260246000fd5b9050602002016020810190610a5291906124f3565b7f0000000000000000000000000000000000000000000000000000000000000000611db5565b60019450505050509998505050505050505050565b610a95611283565b73ffffffffffffffffffffffffffffffffffffffff16610ab36106a6565b73ffffffffffffffffffffffffffffffffffffffff1614610b09576040517f08c379a0000000000000000000000000000000000000000000000000000000008152600401610b0090612f26565b60405180910390fd5b610b128261024f565b610b51576040517f08c379a0000000000000000000000000000000000000000000000000000000008152600401610b4890612e66565b60405180910390fd5b60003090506000600167ffffffffffffffff811115610b99577f4e487b7100000000000000000000000000000000000000000000000000000000600052604160045260246000fd5b604051908082528060200260200182016040528015610bc75781602001602082028036833780820191505090505b5090508581600081518110610c05577f4e487b7100000000000000000000000000000000000000000000000000000000600052603260045260246000fd5b602002602001019073ffffffffffffffffffffffffffffffffffffffff16908173ffffffffffffffffffffffffffffffffffffffff16815250506000600167ffffffffffffffff811115610c82577f4e487b7100000000000000000000000000000000000000000000000000000000600052604160045260246000fd5b604051908082528060200260200182016040528015610cb05781602001602082028036833780820191505090505b5090508381600081518110610cee577f4e487b7100000000000000000000000000000000000000000000000000000000600052603260045260246000fd5b6020026020010181815250506000600167ffffffffffffffff811115610d3d577f4e487b7100000000000000000000000000000000000000000000000000000000600052604160045260246000fd5b604051908082528060200260200182016040528015610d6b5781602001602082028036833780820191505090505b509050600081600081518110610daa577f4e487b7100000000000000000000000000000000000000000000000000000000600052603260045260246000fd5b6020026020010181815250506000309050600060405180608001604052808a73ffffffffffffffffffffffffffffffffffffffff1681526020018b73ffffffffffffffffffffffffffffffffffffffff1681526020018973ffffffffffffffffffffffffffffffffffffffff16815260200188815250604051602001610e309190612fe6565b604051602081830303815290604052905060007f000000000000000000000000000000000000000000000000000000000000000073ffffffffffffffffffffffffffffffffffffffff1663ab9c4b5d888888888888886040518863ffffffff1660e01b8152600401610ea89796959493929190612d0f565b600060405180830381600087803b158015610ec257600080fd5b505af1158015610ed6573d6000803e3d6000fd5b5050505060008b73ffffffffffffffffffffffffffffffffffffffff166370a08231306040518263ffffffff1660e01b8152600401610f159190612c78565b60206040518083038186803b158015610f2d57600080fd5b505afa158015610f41573d6000803e3d6000fd5b505050506040513d601f19601f82011682018060405250810190610f659190612768565b90506000811115611006578b73ffffffffffffffffffffffffffffffffffffffff1663a9059cbb610f946106a6565b836040518363ffffffff1660e01b8152600401610fb2929190612d9a565b602060405180830381600087803b158015610fcc57600080fd5b505af1158015610fe0573d6000803e3d6000fd5b505050506040513d601f19601f820116820180604052508101906110049190612716565b505b60008b73ffffffffffffffffffffffffffffffffffffffff166370a08231306040518263ffffffff1660e01b81526004016110419190612c78565b60206040518083038186803b15801561105957600080fd5b505afa15801561106d573d6000803e3d6000fd5b505050506040513d601f19601f820116820180604052508101906110919190612768565b90506000811115611132578b73ffffffffffffffffffffffffffffffffffffffff1663a9059cbb6110c06106a6565b836040518363ffffffff1660e01b81526004016110de929190612d9a565b602060405180830381600087803b1580156110f857600080fd5b505af115801561110c573d6000803e3d6000fd5b505050506040513d601f19601f820116820180604052508101906111309190612716565b505b50505050505050505050505050565b600160009054906101000a900473ffffffffffffffffffffffffffffffffffffffff1681565b7f000000000000000000000000000000000000000000000000000000000000000081565b611193611283565b73ffffffffffffffffffffffffffffffffffffffff166111b16106a6565b73ffffffffffffffffffffffffffffffffffffffff1614611207576040517f08c379a00000000000000000000000000000000000000000000000000000000081526004016111fe90612f26565b60405180910390fd5b600073ffffffffffffffffffffffffffffffffffffffff168173ffffffffffffffffffffffffffffffffffffffff161415611277576040517f08c379a000000000000000000000000000000000000000000000000000000000815260040161126e90612e86565b60405180910390fd5b61128081611405565b50565b600033905090565b804710156112ce576040517f08c379a00000000000000000000000000000000000000000000000000000000081526004016112c590612ec6565b60405180910390fd5b60008273ffffffffffffffffffffffffffffffffffffffff16826040516112f490612c63565b60006040518083038185875af1925050503d8060008114611331576040519150601f19603f3d011682016040523d82523d6000602084013e611336565b606091505b505090508061137a576040517f08c379a000000000000000000000000000000000000000000000000000000000815260040161137190612ea6565b60405180910390fd5b505050565b6114008363a9059cbb60e01b848460405160240161139e929190612d9a565b604051602081830303815290604052907bffffffffffffffffffffffffffffffffffffffffffffffffffffffff19166020820180517bffffffffffffffffffffffffffffffffffffffffffffffffffffffff8381831617835250505050611e9e565b505050565b60008060009054906101000a900473ffffffffffffffffffffffffffffffffffffffff169050816000806101000a81548173ffffffffffffffffffffffffffffffffffffffff021916908373ffffffffffffffffffffffffffffffffffffffff1602179055508173ffffffffffffffffffffffffffffffffffffffff168173ffffffffffffffffffffffffffffffffffffffff167f8be0079c531659141344cd1fd0a4f28419497f9722a3daafe3b4186f6b6457e060405160405180910390a35050565b6114f3837f0000000000000000000000000000000000000000000000000000000000000000611db5565b7f000000000000000000000000000000000000000000000000000000000000000073ffffffffffffffffffffffffffffffffffffffff1662a718a98585858560006040518663ffffffff1660e01b8152600401611554959493929190612cbc565b600060405180830381600087803b15801561156e57600080fd5b505af1158015611582573d6000803e3d6000fd5b5050505050505050565b61162482826040516024016115a2929190612e36565b6040516020818303038152906040527f9710a9d0000000000000000000000000000000000000000000000000000000007bffffffffffffffffffffffffffffffffffffffffffffffffffffffff19166020820180517bffffffffffffffffffffffffffffffffffffffffffffffffffffffff8381831617835250505050611f65565b5050565b60008273ffffffffffffffffffffffffffffffffffffffff168473ffffffffffffffffffffffffffffffffffffffff16141561166657819050611dae565b61169284600160009054906101000a900473ffffffffffffffffffffffffffffffffffffffff16611db5565b6000600260009054906101000a900473ffffffffffffffffffffffffffffffffffffffff1673ffffffffffffffffffffffffffffffffffffffff1663e6a4390586866040518363ffffffff1660e01b81526004016116f1929190612c93565b60206040518083038186803b15801561170957600080fd5b505afa15801561171d573d6000803e3d6000fd5b505050506040513d601f19601f82011682018060405250810190611741919061251c565b9050600073ffffffffffffffffffffffffffffffffffffffff168173ffffffffffffffffffffffffffffffffffffffff1614611a48576000600267ffffffffffffffff8111156117ba577f4e487b7100000000000000000000000000000000000000000000000000000000600052604160045260246000fd5b6040519080825280602002602001820160405280156117e85781602001602082028036833780820191505090505b5090508581600081518110611826577f4e487b7100000000000000000000000000000000000000000000000000000000600052603260045260246000fd5b602002602001019073ffffffffffffffffffffffffffffffffffffffff16908173ffffffffffffffffffffffffffffffffffffffff1681525050848160018151811061189b577f4e487b7100000000000000000000000000000000000000000000000000000000600052603260045260246000fd5b602002602001019073ffffffffffffffffffffffffffffffffffffffff16908173ffffffffffffffffffffffffffffffffffffffff1681525050600160009054906101000a900473ffffffffffffffffffffffffffffffffffffffff1673ffffffffffffffffffffffffffffffffffffffff166338ed173985600184307ff0000000000000000000000000000000000000000000000000000000000000006040518663ffffffff1660e01b8152600401611959959493929190613001565b600060405180830381600087803b15801561197357600080fd5b505af1158015611987573d6000803e3d6000fd5b505050506040513d6000823e3d601f19601f820116820180604052508101906119b091906126d5565b600182516119be91906131b7565b815181106119f5577f4e487b7100000000000000000000000000000000000000000000000000000000600052603260045260246000fd5b6020026020010151925060008311611a42576040517f08c379a0000000000000000000000000000000000000000000000000000000008152600401611a3990612f66565b60405180910390fd5b50611dac565b6000600367ffffffffffffffff811115611a8b577f4e487b7100000000000000000000000000000000000000000000000000000000600052604160045260246000fd5b604051908082528060200260200182016040528015611ab95781602001602082028036833780820191505090505b5090508581600081518110611af7577f4e487b7100000000000000000000000000000000000000000000000000000000600052603260045260246000fd5b602002602001019073ffffffffffffffffffffffffffffffffffffffff16908173ffffffffffffffffffffffffffffffffffffffff1681525050600360009054906101000a900473ffffffffffffffffffffffffffffffffffffffff1681600181518110611b8e577f4e487b7100000000000000000000000000000000000000000000000000000000600052603260045260246000fd5b602002602001019073ffffffffffffffffffffffffffffffffffffffff16908173ffffffffffffffffffffffffffffffffffffffff16815250508481600281518110611c03577f4e487b7100000000000000000000000000000000000000000000000000000000600052603260045260246000fd5b602002602001019073ffffffffffffffffffffffffffffffffffffffff16908173ffffffffffffffffffffffffffffffffffffffff1681525050600160009054906101000a900473ffffffffffffffffffffffffffffffffffffffff1673ffffffffffffffffffffffffffffffffffffffff166338ed173985600184307ff0000000000000000000000000000000000000000000000000000000000000006040518663ffffffff1660e01b8152600401611cc1959493929190613001565b600060405180830381600087803b158015611cdb57600080fd5b505af1158015611cef573d6000803e3d6000fd5b505050506040513d6000823e3d601f19601f82011682018060405250810190611d1891906126d5565b60018251611d2691906131b7565b81518110611d5d577f4e487b7100000000000000000000000000000000000000000000000000000000600052603260045260246000fd5b6020026020010151925060008311611daa576040517f08c379a0000000000000000000000000000000000000000000000000000000008152600401611da190612f46565b60405180910390fd5b505b505b9392505050565b600082905060008173ffffffffffffffffffffffffffffffffffffffff1663dd62ed3e30856040518363ffffffff1660e01b8152600401611df7929190612c93565b60206040518083038186803b158015611e0f57600080fd5b505afa158015611e23573d6000803e3d6000fd5b505050506040513d601f19601f82011682018060405250810190611e479190612768565b1415611e9957611e98827fffffffffffffffffffffffffffffffffffffffffffffffffffffffffffffffff8373ffffffffffffffffffffffffffffffffffffffff16611f8e9092919063ffffffff16565b5b505050565b6000611f00826040518060400160405280602081526020017f5361666545524332303a206c6f772d6c6576656c2063616c6c206661696c65648152508573ffffffffffffffffffffffffffffffffffffffff166120ec9092919063ffffffff16565b9050600081511115611f605780806020019051810190611f209190612716565b611f5f576040517f08c379a0000000000000000000000000000000000000000000000000000000008152600401611f5690612fa6565b60405180910390fd5b5b505050565b60008151905060006a636f6e736f6c652e6c6f679050602083016000808483855afa5050505050565b6000811480612027575060008373ffffffffffffffffffffffffffffffffffffffff1663dd62ed3e30856040518363ffffffff1660e01b8152600401611fd5929190612c93565b60206040518083038186803b158015611fed57600080fd5b505afa158015612001573d6000803e3d6000fd5b505050506040513d601f19601f820116820180604052508101906120259190612768565b145b612066576040517f08c379a000000000000000000000000000000000000000000000000000000000815260040161205d90612fc6565b60405180910390fd5b6120e78363095ea7b360e01b8484604051602401612085929190612d9a565b604051602081830303815290604052907bffffffffffffffffffffffffffffffffffffffffffffffffffffffff19166020820180517bffffffffffffffffffffffffffffffffffffffffffffffffffffffff8381831617835250505050611e9e565b505050565b60606120fb8484600085612104565b90509392505050565b606082471015612149576040517f08c379a000000000000000000000000000000000000000000000000000000000815260040161214090612ee6565b60405180910390fd5b61215285612218565b612191576040517f08c379a000000000000000000000000000000000000000000000000000000000815260040161218890612f86565b60405180910390fd5b6000808673ffffffffffffffffffffffffffffffffffffffff1685876040516121ba9190612c4c565b60006040518083038185875af1925050503d80600081146121f7576040519150601f19603f3d011682016040523d82523d6000602084013e6121fc565b606091505b509150915061220c82828661223b565b92505050949350505050565b6000808273ffffffffffffffffffffffffffffffffffffffff163b119050919050565b6060831561224b5782905061229b565b60008351111561225e5782518084602001fd5b816040517f08c379a00000000000000000000000000000000000000000000000000000000081526004016122929190612e14565b60405180910390fd5b9392505050565b60006122b56122b084613080565b61305b565b905080838252602082019050828560208602820111156122d457600080fd5b60005b8581101561230457816122ea88826124de565b8452602084019350602083019250506001810190506122d7565b5050509392505050565b60008135905061231d8161368a565b92915050565b6000815190506123328161368a565b92915050565b60008083601f84011261234a57600080fd5b8235905067ffffffffffffffff81111561236357600080fd5b60208301915083602082028301111561237b57600080fd5b9250929050565b60008083601f84011261239457600080fd5b8235905067ffffffffffffffff8111156123ad57600080fd5b6020830191508360208202830111156123c557600080fd5b9250929050565b600082601f8301126123dd57600080fd5b81516123ed8482602086016122a2565b91505092915050565b600081519050612405816136a1565b92915050565b60008083601f84011261241d57600080fd5b8235905067ffffffffffffffff81111561243657600080fd5b60208301915083600182028301111561244e57600080fd5b9250929050565b60006080828403121561246757600080fd5b612471608061305b565b905060006124818482850161230e565b60008301525060206124958482850161230e565b60208301525060406124a98482850161230e565b60408301525060606124bd848285016124c9565b60608301525092915050565b6000813590506124d8816136b8565b92915050565b6000815190506124ed816136b8565b92915050565b60006020828403121561250557600080fd5b60006125138482850161230e565b91505092915050565b60006020828403121561252e57600080fd5b600061253c84828501612323565b91505092915050565b6000806000806080858703121561255b57600080fd5b60006125698782880161230e565b945050602061257a8782880161230e565b935050604061258b8782880161230e565b925050606061259c878288016124c9565b91505092959194509250565b600080602083850312156125bb57600080fd5b600083013567ffffffffffffffff8111156125d557600080fd5b6125e185828601612338565b92509250509250929050565b600080600080600080600080600060a08a8c03121561260b57600080fd5b60008a013567ffffffffffffffff81111561262557600080fd5b6126318c828d01612338565b995099505060208a013567ffffffffffffffff81111561265057600080fd5b61265c8c828d01612382565b975097505060408a013567ffffffffffffffff81111561267b57600080fd5b6126878c828d01612382565b9550955050606061269a8c828d0161230e565b93505060808a013567ffffffffffffffff8111156126b757600080fd5b6126c38c828d0161240b565b92509250509295985092959850929598565b6000602082840312156126e757600080fd5b600082015167ffffffffffffffff81111561270157600080fd5b61270d848285016123cc565b91505092915050565b60006020828403121561272857600080fd5b6000612736848285016123f6565b91505092915050565b60006080828403121561275157600080fd5b600061275f84828501612455565b91505092915050565b60006020828403121561277a57600080fd5b6000612788848285016124de565b91505092915050565b60008060008060008060c087890312156127aa57600080fd5b60006127b889828a016124de565b96505060206127c989828a016124de565b95505060406127da89828a016124de565b94505060606127eb89828a016124de565b93505060806127fc89828a016124de565b92505060a061280d89828a016124de565b9150509295509295509295565b6000612826838361284a565b60208301905092915050565b600061283e8383612c2e565b60208301905092915050565b612853816131eb565b82525050565b612862816131eb565b82525050565b6000612873826130cc565b61287d8185613112565b9350612888836130ac565b8060005b838110156128b95781516128a0888261281a565b97506128ab836130f8565b92505060018101905061288c565b5085935050505092915050565b60006128d1826130d7565b6128db8185613123565b93506128e6836130bc565b8060005b838110156129175781516128fe8882612832565b975061290983613105565b9250506001810190506128ea565b5085935050505092915050565b61292d816131fd565b82525050565b600061293e826130e2565b6129488185613134565b935061295881856020860161329b565b612961816133a6565b840191505092915050565b6000612977826130e2565b6129818185613145565b935061299181856020860161329b565b80840191505092915050565b6129a681613241565b82525050565b6129b581613265565b82525050565b6129c481613289565b82525050565b60006129d5826130ed565b6129df8185613150565b93506129ef81856020860161329b565b6129f8816133a6565b840191505092915050565b6000612a10601083613150565b9150612a1b826133b7565b602082019050919050565b6000612a33602683613150565b9150612a3e826133e0565b604082019050919050565b6000612a56603a83613150565b9150612a618261342f565b604082019050919050565b6000612a79601d83613150565b9150612a848261347e565b602082019050919050565b6000612a9c602683613150565b9150612aa7826134a7565b604082019050919050565b6000612abf602b83613150565b9150612aca826134f6565b604082019050919050565b6000612ae2602083613150565b9150612aed82613545565b602082019050919050565b6000612b05601783613150565b9150612b108261356e565b602082019050919050565b6000612b28601783613150565b9150612b3382613597565b602082019050919050565b6000612b4b600083613145565b9150612b56826135c0565b600082019050919050565b6000612b6e601d83613150565b9150612b79826135c3565b602082019050919050565b6000612b91602a83613150565b9150612b9c826135ec565b604082019050919050565b6000612bb4603683613150565b9150612bbf8261363b565b604082019050919050565b608082016000820151612be0600085018261284a565b506020820151612bf3602085018261284a565b506040820151612c06604085018261284a565b506060820151612c196060850182612c2e565b50505050565b612c2881613209565b82525050565b612c3781613237565b82525050565b612c4681613237565b82525050565b6000612c58828461296c565b915081905092915050565b6000612c6e82612b3e565b9150819050919050565b6000602082019050612c8d6000830184612859565b92915050565b6000604082019050612ca86000830185612859565b612cb56020830184612859565b9392505050565b600060a082019050612cd16000830188612859565b612cde6020830187612859565b612ceb6040830186612859565b612cf86060830185612c3d565b612d056080830184612924565b9695505050505050565b600060e082019050612d24600083018a612859565b8181036020830152612d368189612868565b90508181036040830152612d4a81886128c6565b90508181036060830152612d5e81876128c6565b9050612d6d6080830186612859565b81810360a0830152612d7f8185612933565b9050612d8e60c0830184612c1f565b98975050505050505050565b6000604082019050612daf6000830185612859565b612dbc6020830184612c3d565b9392505050565b6000602082019050612dd86000830184612924565b92915050565b6000602082019050612df3600083018461299d565b92915050565b6000602082019050612e0e60008301846129ac565b92915050565b60006020820190508181036000830152612e2e81846129ca565b905092915050565b60006040820190508181036000830152612e5081856129ca565b9050612e5f6020830184612c3d565b9392505050565b60006020820190508181036000830152612e7f81612a03565b9050919050565b60006020820190508181036000830152612e9f81612a26565b9050919050565b60006020820190508181036000830152612ebf81612a49565b9050919050565b60006020820190508181036000830152612edf81612a6c565b9050919050565b60006020820190508181036000830152612eff81612a8f565b9050919050565b60006020820190508181036000830152612f1f81612ab2565b9050919050565b60006020820190508181036000830152612f3f81612ad5565b9050919050565b60006020820190508181036000830152612f5f81612af8565b9050919050565b60006020820190508181036000830152612f7f81612b1b565b9050919050565b60006020820190508181036000830152612f9f81612b61565b9050919050565b60006020820190508181036000830152612fbf81612b84565b9050919050565b60006020820190508181036000830152612fdf81612ba7565b9050919050565b6000608082019050612ffb6000830184612bca565b92915050565b600060a0820190506130166000830188612c3d565b61302360208301876129bb565b81810360408301526130358186612868565b90506130446060830185612859565b6130516080830184612c3d565b9695505050505050565b6000613065613076565b905061307182826132ce565b919050565b6000604051905090565b600067ffffffffffffffff82111561309b5761309a613377565b5b602082029050602081019050919050565b6000819050602082019050919050565b6000819050602082019050919050565b600081519050919050565b600081519050919050565b600081519050919050565b600081519050919050565b6000602082019050919050565b6000602082019050919050565b600082825260208201905092915050565b600082825260208201905092915050565b600082825260208201905092915050565b600081905092915050565b600082825260208201905092915050565b600061316c82613237565b915061317783613237565b9250827fffffffffffffffffffffffffffffffffffffffffffffffffffffffffffffffff038211156131ac576131ab613348565b5b828201905092915050565b60006131c282613237565b91506131cd83613237565b9250828210156131e0576131df613348565b5b828203905092915050565b60006131f682613217565b9050919050565b60008115159050919050565b600061ffff82169050919050565b600073ffffffffffffffffffffffffffffffffffffffff82169050919050565b6000819050919050565b600061324c82613253565b9050919050565b600061325e82613217565b9050919050565b600061327082613277565b9050919050565b600061328282613217565b9050919050565b600061329482613237565b9050919050565b60005b838110156132b957808201518184015260208101905061329e565b838111156132c8576000848401525b50505050565b6132d7826133a6565b810181811067ffffffffffffffff821117156132f6576132f5613377565b5b80604052505050565b600061330a82613237565b91507fffffffffffffffffffffffffffffffffffffffffffffffffffffffffffffffff82141561333d5761333c613348565b5b600182019050919050565b7f4e487b7100000000000000000000000000000000000000000000000000000000600052601160045260246000fd5b7f4e487b7100000000000000000000000000000000000000000000000000000000600052604160045260246000fd5b6000601f19601f8301169050919050565b7f7573657220776173206865616c74687900000000000000000000000000000000600082015250565b7f4f776e61626c653a206e6577206f776e657220697320746865207a65726f206160008201527f6464726573730000000000000000000000000000000000000000000000000000602082015250565b7f416464726573733a20756e61626c6520746f2073656e642076616c75652c207260008201527f6563697069656e74206d61792068617665207265766572746564000000000000602082015250565b7f416464726573733a20696e73756666696369656e742062616c616e6365000000600082015250565b7f416464726573733a20696e73756666696369656e742062616c616e636520666f60008201527f722063616c6c0000000000000000000000000000000000000000000000000000602082015250565b7f6469646e742774207265636569766520656e6f756768206465627420746f6b6560008201527f6e7320746f207265706179000000000000000000000000000000000000000000602082015250565b7f4f776e61626c653a2063616c6c6572206973206e6f7420746865206f776e6572600082015250565b7f4572726f72205377617070696e6720546f6b656e732033000000000000000000600082015250565b7f4572726f72205377617070696e6720546f6b656e732032000000000000000000600082015250565b50565b7f416464726573733a2063616c6c20746f206e6f6e2d636f6e7472616374000000600082015250565b7f5361666545524332303a204552433230206f7065726174696f6e20646964206e60008201527f6f74207375636365656400000000000000000000000000000000000000000000602082015250565b7f5361666545524332303a20617070726f76652066726f6d206e6f6e2d7a65726f60008201527f20746f206e6f6e2d7a65726f20616c6c6f77616e636500000000000000000000602082015250565b613693816131eb565b811461369e57600080fd5b50565b6136aa816131fd565b81146136b557600080fd5b50565b6136c181613237565b81146136cc57600080fd5b5056fea26469706673582212202598ac640a09e1976d3cdf086a68126201b5f506ce308e4b83fb06ace64abbc164736f6c63430008040033",
  "linkReferences": {},
  "deployedLinkReferences": {}
}